{
  "address": "0x08f36c56F22940a7a3d9e0d0067486D115c7e39b",
  "abi": [
    {
      "inputs": [
        {
          "internalType": "uint256",
          "name": "campaignGoal",
          "type": "uint256"
        },
        {
          "internalType": "uint256",
          "name": "minContribution",
          "type": "uint256"
        }
      ],
      "stateMutability": "nonpayable",
      "type": "constructor"
    },
    {
      "inputs": [],
      "name": "Campaign__NotEnoughFundToVote",
      "type": "error"
    },
    {
      "inputs": [
        {
          "internalType": "uint256",
          "name": "amountNeedToWithdraw",
          "type": "uint256"
        },
        {
          "internalType": "uint256",
          "name": "contractBalance",
          "type": "uint256"
        }
      ],
      "name": "Campaign__NotEnoughToWithdraw",
      "type": "error"
    },
    {
      "inputs": [
        {
          "internalType": "address",
          "name": "sender",
          "type": "address"
        },
        {
          "internalType": "address",
          "name": "owner",
          "type": "address"
        }
      ],
      "name": "Campaign__NotOwner",
      "type": "error"
    },
    {
      "inputs": [],
      "name": "Campaign__RequestIsUnderProcess",
      "type": "error"
    },
    {
      "inputs": [],
      "name": "Campaign__RequestRejected",
      "type": "error"
    },
    {
      "inputs": [],
      "name": "Campaign__WithdrawTransactionFailed",
      "type": "error"
    },
    {
      "inputs": [],
      "name": "Stake__ContributerAlreadyVoted",
      "type": "error"
    },
    {
      "inputs": [],
      "name": "Stake__DeadLineReached",
      "type": "error"
    },
    {
      "inputs": [
        {
          "internalType": "uint256",
          "name": "remainingTime",
          "type": "uint256"
        }
      ],
      "name": "Stake__DeadlineNotReached",
      "type": "error"
    },
    {
      "anonymous": false,
      "inputs": [
        {
          "indexed": false,
          "internalType": "address",
          "name": "from",
          "type": "address"
        },
        {
          "indexed": false,
          "internalType": "uint256",
          "name": "fundedAmount",
          "type": "uint256"
        }
      ],
      "name": "FundTransfered",
      "type": "event"
    },
    {
      "anonymous": false,
      "inputs": [
        {
          "indexed": false,
          "internalType": "uint256",
          "name": "amountWithdrawed",
          "type": "uint256"
        }
      ],
      "name": "FundWithdrawed",
      "type": "event"
    },
    {
      "anonymous": false,
      "inputs": [
        {
          "indexed": false,
          "internalType": "address",
          "name": "from",
          "type": "address"
        },
        {
          "indexed": false,
          "internalType": "address",
          "name": "to",
          "type": "address"
        }
      ],
      "name": "OwnershipTransfered",
      "type": "event"
    },
    {
      "anonymous": false,
      "inputs": [
        {
          "indexed": false,
          "internalType": "uint256",
          "name": "requestIndex",
          "type": "uint256"
        }
      ],
      "name": "RequestApplied",
      "type": "event"
    },
    {
      "anonymous": false,
      "inputs": [
        {
          "indexed": false,
          "internalType": "uint256",
          "name": "requestIndex",
          "type": "uint256"
        },
        {
          "indexed": false,
          "internalType": "bool",
          "name": "approved",
          "type": "bool"
        },
        {
          "indexed": false,
          "internalType": "uint256",
          "name": "acceptedWeightage",
          "type": "uint256"
        },
        {
          "indexed": false,
          "internalType": "uint256",
          "name": "rejectedWeightage",
          "type": "uint256"
        }
      ],
      "name": "RequestResult",
      "type": "event"
    },
    {
      "inputs": [
        {
          "internalType": "uint256",
          "name": "requestIndex",
          "type": "uint256"
        }
      ],
      "name": "executeResult",
      "outputs": [],
      "stateMutability": "nonpayable",
      "type": "function"
    },
    {
      "inputs": [],
      "name": "getCampaignGoal",
      "outputs": [
        {
          "internalType": "uint256",
          "name": "",
          "type": "uint256"
        }
      ],
      "stateMutability": "view",
      "type": "function"
    },
    {
      "inputs": [],
      "name": "getContributors",
      "outputs": [
        {
          "internalType": "address[]",
          "name": "",
          "type": "address[]"
        }
      ],
      "stateMutability": "view",
      "type": "function"
    },
    {
      "inputs": [
        {
          "internalType": "address",
          "name": "contributerAddress",
          "type": "address"
        }
      ],
      "name": "getContributorsFundAmount",
      "outputs": [
        {
          "internalType": "uint256",
          "name": "",
          "type": "uint256"
        }
      ],
      "stateMutability": "view",
      "type": "function"
    },
    {
      "inputs": [],
      "name": "getCurrentFundInContract",
      "outputs": [
        {
          "internalType": "uint256",
          "name": "",
          "type": "uint256"
        }
      ],
      "stateMutability": "view",
      "type": "function"
    },
    {
      "inputs": [
        {
          "internalType": "address",
          "name": "contributer",
          "type": "address"
        }
      ],
      "name": "getFundByAddress",
      "outputs": [
        {
          "internalType": "uint256",
          "name": "",
          "type": "uint256"
        }
      ],
      "stateMutability": "view",
      "type": "function"
    },
    {
      "inputs": [],
      "name": "getMinContributionLimit",
      "outputs": [
        {
          "internalType": "uint256",
          "name": "",
          "type": "uint256"
        }
      ],
      "stateMutability": "view",
      "type": "function"
    },
    {
      "inputs": [],
      "name": "getOwnerAddress",
      "outputs": [
        {
          "internalType": "address",
          "name": "",
          "type": "address"
        }
      ],
      "stateMutability": "view",
      "type": "function"
    },
    {
      "inputs": [
        {
          "internalType": "uint256",
          "name": "requestId",
          "type": "uint256"
        }
      ],
      "name": "getRequestInfo",
      "outputs": [
        {
          "internalType": "uint256",
          "name": "",
          "type": "uint256"
        },
        {
          "internalType": "uint256",
          "name": "",
          "type": "uint256"
        },
        {
          "internalType": "uint256",
          "name": "",
          "type": "uint256"
        },
        {
          "internalType": "uint32",
          "name": "",
          "type": "uint32"
        },
        {
          "internalType": "uint256",
          "name": "",
          "type": "uint256"
        },
        {
          "internalType": "uint256",
          "name": "",
          "type": "uint256"
        },
        {
          "internalType": "bool",
          "name": "",
          "type": "bool"
        }
      ],
      "stateMutability": "view",
      "type": "function"
    },
    {
      "inputs": [
        {
          "internalType": "uint256",
          "name": "requestId",
          "type": "uint256"
        }
      ],
      "name": "getRequestStatus",
      "outputs": [
        {
          "internalType": "uint32",
          "name": "",
          "type": "uint32"
        }
      ],
      "stateMutability": "view",
      "type": "function"
    },
    {
      "inputs": [
        {
          "internalType": "uint256",
          "name": "requestId",
          "type": "uint256"
        }
      ],
      "name": "getTimeLeftForRequest",
      "outputs": [
        {
          "internalType": "uint256",
          "name": "",
          "type": "uint256"
        }
      ],
      "stateMutability": "view",
      "type": "function"
    },
    {
      "inputs": [],
      "name": "getTotalContributers",
      "outputs": [
        {
          "internalType": "uint256",
          "name": "",
          "type": "uint256"
        }
      ],
      "stateMutability": "view",
      "type": "function"
    },
    {
      "inputs": [],
      "name": "getTotalFund",
      "outputs": [
        {
          "internalType": "uint256",
          "name": "",
          "type": "uint256"
        }
      ],
      "stateMutability": "view",
      "type": "function"
    },
    {
      "inputs": [
        {
          "internalType": "uint256",
          "name": "_durationOfRequest",
          "type": "uint256"
        },
        {
          "internalType": "uint256",
          "name": "_withdrawAmount",
          "type": "uint256"
        }
      ],
      "name": "makeRequest",
      "outputs": [
        {
          "internalType": "uint256",
          "name": "",
          "type": "uint256"
        }
      ],
      "stateMutability": "nonpayable",
      "type": "function"
    },
    {
      "inputs": [
        {
          "internalType": "address",
          "name": "",
          "type": "address"
        }
      ],
      "name": "s_contributerFund",
      "outputs": [
        {
          "internalType": "uint256",
          "name": "",
          "type": "uint256"
        }
      ],
      "stateMutability": "view",
      "type": "function"
    },
    {
      "inputs": [
        {
          "internalType": "uint256",
          "name": "requestId",
          "type": "uint256"
        },
        {
          "internalType": "bool",
          "name": "myVote",
          "type": "bool"
        }
      ],
      "name": "stakeInRequest",
      "outputs": [],
      "stateMutability": "nonpayable",
      "type": "function"
    },
    {
      "inputs": [
        {
          "internalType": "address",
          "name": "to",
          "type": "address"
        }
      ],
      "name": "transferOwnerShip",
      "outputs": [],
      "stateMutability": "nonpayable",
      "type": "function"
    },
    {
      "inputs": [
        {
          "internalType": "uint256",
          "name": "requestIndex",
          "type": "uint256"
        }
      ],
      "name": "withdraw",
      "outputs": [],
      "stateMutability": "payable",
      "type": "function"
    },
    {
      "stateMutability": "payable",
      "type": "receive"
    }
  ],
  "transactionHash": "0xc28bdc6e5034abac64a3f3e296b7b322bc493dd4d17890fcdb7d5b5a5c79144b",
  "args": [
    "1000000000000000000000",
    "10000000000000000"
  ],
  "numDeployments": 7,
  "solcInputHash": "0210713252624c6167f862d1b68e93de",
  "bytecode": "0x60c06040523480156200001157600080fd5b5060405162001db838038062001db88339818101604052810190620000379190620000d0565b81608081815250508060a0818152505033600260006101000a81548173ffffffffffffffffffffffffffffffffffffffff021916908373ffffffffffffffffffffffffffffffffffffffff160217905550505062000117565b600080fd5b6000819050919050565b620000aa8162000095565b8114620000b657600080fd5b50565b600081519050620000ca816200009f565b92915050565b60008060408385031215620000ea57620000e962000090565b5b6000620000fa85828601620000b9565b92505060206200010d85828601620000b9565b9150509250929050565b60805160a051611c746200014460003960008181610114015261078a01526000610d220152611c746000f3fe60806040526004361061010d5760003560e01c806372b47b8411610095578063b93863df11610064578063b93863df146104db578063c7abca4714610518578063d8a4676f14610555578063e4d89cf614610592578063fd6bc8b8146105cf57610280565b806372b47b84146104315780638863dd1a1461045c5780639fd813e314610485578063af157c19146104b057610280565b80632777e45b116100dc5780632777e45b146103495780632e1a7d4d146103865780634b73212b146103a2578063696a7319146103df5780637018a7af1461040857610280565b806309d387da146102855780630b816045146102b05780630c4f65bd146102f35780631972f7fa1461031e57610280565b36610280577f0000000000000000000000000000000000000000000000000000000000000000341015610175576040517f08c379a000000000000000000000000000000000000000000000000000000000815260040161016c906115ea565b60405180910390fd5b7f4a0f31347e3bcd7ca4807151e54057b91971fdf592fcd3056a22fa1236dea3a233346040516101a6929190611664565b60405180910390a1346000803373ffffffffffffffffffffffffffffffffffffffff1673ffffffffffffffffffffffffffffffffffffffff16815260200190815260200160002060008282546101fc91906116bc565b92505081905550346001600082825461021591906116bc565b925050819055506004339080600181540180825580915050600190039060005260206000200160009091909190916101000a81548173ffffffffffffffffffffffffffffffffffffffff021916908373ffffffffffffffffffffffffffffffffffffffff1602179055005b600080fd5b34801561029157600080fd5b5061029a6105fa565b6040516102a791906116f0565b60405180910390f35b3480156102bc57600080fd5b506102d760048036038101906102d2919061173c565b610602565b6040516102ea97969594939291906117a3565b60405180910390f35b3480156102ff57600080fd5b5061030861075c565b6040516103159190611812565b60405180910390f35b34801561032a57600080fd5b50610333610786565b60405161034091906116f0565b60405180910390f35b34801561035557600080fd5b50610370600480360381019061036b919061173c565b6107ae565b60405161037d91906116f0565b60405180910390f35b6103a0600480360381019061039b919061173c565b6107e1565b005b3480156103ae57600080fd5b506103c960048036038101906103c49190611859565b610b4f565b6040516103d691906116f0565b60405180910390f35b3480156103eb57600080fd5b50610406600480360381019061040191906118b2565b610b97565b005b34801561041457600080fd5b5061042f600480360381019061042a919061173c565b610c1a565b005b34801561043d57600080fd5b50610446610d1e565b60405161045391906116f0565b60405180910390f35b34801561046857600080fd5b50610483600480360381019061047e9190611859565b610d46565b005b34801561049157600080fd5b5061049a610e79565b6040516104a791906116f0565b60405180910390f35b3480156104bc57600080fd5b506104c5610e83565b6040516104d291906119b0565b60405180910390f35b3480156104e757600080fd5b5061050260048036038101906104fd91906119d2565b610f11565b60405161050f91906116f0565b60405180910390f35b34801561052457600080fd5b5061053f600480360381019061053a9190611859565b61110c565b60405161054c91906116f0565b60405180910390f35b34801561056157600080fd5b5061057c6004803603810190610577919061173c565b611124565b6040516105899190611a12565b60405180910390f35b34801561059e57600080fd5b506105b960048036038101906105b49190611859565b611172565b6040516105c691906116f0565b60405180910390f35b3480156105db57600080fd5b506105e46111ba565b6040516105f191906116f0565b60405180910390f35b600047905090565b60008060008060008060006003888154811061062157610620611a2d565b5b9060005260206000209060080201600201546003898154811061064757610646611a2d565b5b90600052602060002090600802016003015460038a8154811061066d5761066c611a2d565b5b90600052602060002090600802016001015460038b8154811061069357610692611a2d565b5b906000526020600020906008020160070160009054906101000a900460ff1660028111156106c4576106c3611a5c565b5b60038c815481106106d8576106d7611a2d565b5b90600052602060002090600802016005015460038d815481106106fe576106fd611a2d565b5b90600052602060002090600802016006015460038e8154811061072457610723611a2d565b5b906000526020600020906008020160070160019054906101000a900460ff169650965096509650965096509650919395979092949650565b6000600260009054906101000a900473ffffffffffffffffffffffffffffffffffffffff16905090565b60007f0000000000000000000000000000000000000000000000000000000000000000905090565b60006107da600383815481106107c7576107c6611a2d565b5b90600052602060002090600802016111c7565b9050919050565b600260009054906101000a900473ffffffffffffffffffffffffffffffffffffffff1673ffffffffffffffffffffffffffffffffffffffff163373ffffffffffffffffffffffffffffffffffffffff16146108975733600260009054906101000a900473ffffffffffffffffffffffffffffffffffffffff166040517fffa2d83c00000000000000000000000000000000000000000000000000000000815260040161088e929190611a8b565b60405180910390fd5b806108a181610c1a565b600060028111156108b5576108b4611a5c565b5b6108df600383815481106108cc576108cb611a2d565b5b9060005260206000209060080201611206565b60028111156108f1576108f0611a5c565b5b03610928576040517fbae63cc200000000000000000000000000000000000000000000000000000000815260040160405180910390fd5b60028081111561093b5761093a611a5c565b5b6109656003838154811061095257610951611a2d565b5b9060005260206000209060080201611206565b600281111561097757610976611a5c565b5b036109ae576040517f3db289e300000000000000000000000000000000000000000000000000000000815260040160405180910390fd5b60006109da600384815481106109c7576109c6611a2d565b5b9060005260206000209060080201611221565b905080471015610a235780476040517fae7a822f000000000000000000000000000000000000000000000000000000008152600401610a1a929190611ab4565b60405180910390fd5b6000600260009054906101000a900473ffffffffffffffffffffffffffffffffffffffff1673ffffffffffffffffffffffffffffffffffffffff1682604051610a6b90611b0e565b60006040518083038185875af1925050503d8060008114610aa8576040519150601f19603f3d011682016040523d82523d6000602084013e610aad565b606091505b5050905080610ae8576040517f4c3ac88a00000000000000000000000000000000000000000000000000000000815260040160405180910390fd5b610b1260038581548110610aff57610afe611a2d565b5b906000526020600020906008020161122f565b7f78607c3338a50a97f0960b9ebb80a74d63115b7f462a4ea45c55abb0e5a3656382604051610b4191906116f0565b60405180910390a150505050565b60008060008373ffffffffffffffffffffffffffffffffffffffff1673ffffffffffffffffffffffffffffffffffffffff168152602001908152602001600020549050919050565b6000610be66000803373ffffffffffffffffffffffffffffffffffffffff1673ffffffffffffffffffffffffffffffffffffffff1681526020019081526020016000205461271060015461124f565b9050610c1560038481548110610bff57610bfe611a2d565b5b90600052602060002090600802018333846112b6565b505050565b610c4460038281548110610c3157610c30611a2d565b5b906000526020600020906008020161147c565b7f457f287d718c8d7a81d2f267aa5185af264c105281dae8a108039c61a16fd69d8160016002811115610c7a57610c79611a5c565b5b610ca460038581548110610c9157610c90611a2d565b5b9060005260206000209060080201611206565b6002811115610cb657610cb5611a5c565b5b1460038481548110610ccb57610cca611a2d565b5b90600052602060002090600802016005015460038581548110610cf157610cf0611a2d565b5b906000526020600020906008020160060154604051610d139493929190611b23565b60405180910390a150565b60007f0000000000000000000000000000000000000000000000000000000000000000905090565b600260009054906101000a900473ffffffffffffffffffffffffffffffffffffffff1673ffffffffffffffffffffffffffffffffffffffff163373ffffffffffffffffffffffffffffffffffffffff1614610dfc5733600260009054906101000a900473ffffffffffffffffffffffffffffffffffffffff166040517fffa2d83c000000000000000000000000000000000000000000000000000000008152600401610df3929190611a8b565b60405180910390fd5b80600260006101000a81548173ffffffffffffffffffffffffffffffffffffffff021916908373ffffffffffffffffffffffffffffffffffffffff1602179055507f0d18b5fd22306e373229b9439188228edca81207d1667f604daf6cef8aa3ee673382604051610e6e929190611a8b565b60405180910390a150565b6000600154905090565b60606004805480602002602001604051908101604052809291908181526020018280548015610f0757602002820191906000526020600020905b8160009054906101000a900473ffffffffffffffffffffffffffffffffffffffff1673ffffffffffffffffffffffffffffffffffffffff1681526020019060010190808311610ebd575b5050505050905090565b6000600260009054906101000a900473ffffffffffffffffffffffffffffffffffffffff1673ffffffffffffffffffffffffffffffffffffffff163373ffffffffffffffffffffffffffffffffffffffff1614610fc95733600260009054906101000a900473ffffffffffffffffffffffffffffffffffffffff166040517fffa2d83c000000000000000000000000000000000000000000000000000000008152600401610fc0929190611a8b565b60405180910390fd5b600060036001816001815401808255809150500390600052602060002090600802019050838160010181905550828160020181905550428160030181905550600081600501819055506000816006018190555060008160070160016101000a81548160ff021916908315150217905550308160040160006101000a81548173ffffffffffffffffffffffffffffffffffffffff021916908373ffffffffffffffffffffffffffffffffffffffff16021790555060008160070160006101000a81548160ff021916908360028111156110a4576110a3611a5c565b5b02179055507fa5f7f4c8f7ba98ee825a5d8b155830a9dd4e7d29fcc431c6c3bcce27776c278460016003805490506110dc9190611b68565b6040516110e991906116f0565b60405180910390a160016003805490506111039190611b68565b91505092915050565b60006020528060005260406000206000915090505481565b60006003828154811061113a57611139611a2d565b5b906000526020600020906008020160070160009054906101000a900460ff16600281111561116b5761116a611a5c565b5b9050919050565b60008060008373ffffffffffffffffffffffffffffffffffffffff1673ffffffffffffffffffffffffffffffffffffffff168152602001908152602001600020549050919050565b6000600480549050905090565b600080826001015483600301546111de91906116bc565b90508042106111f1576000915050611201565b42816111fd9190611b68565b9150505b919050565b60008160070160009054906101000a900460ff169050919050565b600081600201549050919050565b60018160070160016101000a81548160ff02191690831515021790555050565b600081838561125e9190611b9c565b1015611296576040517fcf5aa87800000000000000000000000000000000000000000000000000000000815260040160405180910390fd5b8183856112a39190611b9c565b6112ad9190611c0d565b90509392505050565b836000806112c3836111c7565b9050811561131657600081111561131157806040517f72819b1100000000000000000000000000000000000000000000000000000000815260040161130891906116f0565b60405180910390fd5b611351565b60008103611350576040517fc1ae823a00000000000000000000000000000000000000000000000000000000815260040160405180910390fd5b5b8660000160008673ffffffffffffffffffffffffffffffffffffffff1673ffffffffffffffffffffffffffffffffffffffff16815260200190815260200160002060009054906101000a900460ff16156113d7576040517fd2383bdc00000000000000000000000000000000000000000000000000000000815260040160405180910390fd5b60018760000160008773ffffffffffffffffffffffffffffffffffffffff1673ffffffffffffffffffffffffffffffffffffffff16815260200190815260200160002060006101000a81548160ff0219169083151502179055508515611457578387600501600082825461144b91906116bc565b92505081905550611473565b8387600601600082825461146b91906116bc565b925050819055505b50505050505050565b806001600061148a836111c7565b905081156114dd5760008111156114d857806040517f72819b110000000000000000000000000000000000000000000000000000000081526004016114cf91906116f0565b60405180910390fd5b611518565b60008103611517576040517fc1ae823a00000000000000000000000000000000000000000000000000000000815260040160405180910390fd5b5b83600601548460050154106115595760018460070160006101000a81548160ff0219169083600281111561154f5761154e611a5c565b5b0217905550611587565b60028460070160006101000a81548160ff0219169083600281111561158157611580611a5c565b5b02179055505b50505050565b600082825260208201905092915050565b7f496e6372656173652074686520636f6e747269627574696f6e20616d6f756e74600082015250565b60006115d460208361158d565b91506115df8261159e565b602082019050919050565b60006020820190508181036000830152611603816115c7565b9050919050565b600073ffffffffffffffffffffffffffffffffffffffff82169050919050565b60006116358261160a565b9050919050565b6116458161162a565b82525050565b6000819050919050565b61165e8161164b565b82525050565b6000604082019050611679600083018561163c565b6116866020830184611655565b9392505050565b7f4e487b7100000000000000000000000000000000000000000000000000000000600052601160045260246000fd5b60006116c78261164b565b91506116d28361164b565b92508282019050808211156116ea576116e961168d565b5b92915050565b60006020820190506117056000830184611655565b92915050565b600080fd5b6117198161164b565b811461172457600080fd5b50565b60008135905061173681611710565b92915050565b6000602082840312156117525761175161170b565b5b600061176084828501611727565b91505092915050565b600063ffffffff82169050919050565b61178281611769565b82525050565b60008115159050919050565b61179d81611788565b82525050565b600060e0820190506117b8600083018a611655565b6117c56020830189611655565b6117d26040830188611655565b6117df6060830187611779565b6117ec6080830186611655565b6117f960a0830185611655565b61180660c0830184611794565b98975050505050505050565b6000602082019050611827600083018461163c565b92915050565b6118368161162a565b811461184157600080fd5b50565b6000813590506118538161182d565b92915050565b60006020828403121561186f5761186e61170b565b5b600061187d84828501611844565b91505092915050565b61188f81611788565b811461189a57600080fd5b50565b6000813590506118ac81611886565b92915050565b600080604083850312156118c9576118c861170b565b5b60006118d785828601611727565b92505060206118e88582860161189d565b9150509250929050565b600081519050919050565b600082825260208201905092915050565b6000819050602082019050919050565b6119278161162a565b82525050565b6000611939838361191e565b60208301905092915050565b6000602082019050919050565b600061195d826118f2565b61196781856118fd565b93506119728361190e565b8060005b838110156119a357815161198a888261192d565b975061199583611945565b925050600181019050611976565b5085935050505092915050565b600060208201905081810360008301526119ca8184611952565b905092915050565b600080604083850312156119e9576119e861170b565b5b60006119f785828601611727565b9250506020611a0885828601611727565b9150509250929050565b6000602082019050611a276000830184611779565b92915050565b7f4e487b7100000000000000000000000000000000000000000000000000000000600052603260045260246000fd5b7f4e487b7100000000000000000000000000000000000000000000000000000000600052602160045260246000fd5b6000604082019050611aa0600083018561163c565b611aad602083018461163c565b9392505050565b6000604082019050611ac96000830185611655565b611ad66020830184611655565b9392505050565b600081905092915050565b50565b6000611af8600083611add565b9150611b0382611ae8565b600082019050919050565b6000611b1982611aeb565b9150819050919050565b6000608082019050611b386000830187611655565b611b456020830186611794565b611b526040830185611655565b611b5f6060830184611655565b95945050505050565b6000611b738261164b565b9150611b7e8361164b565b9250828203905081811115611b9657611b9561168d565b5b92915050565b6000611ba78261164b565b9150611bb28361164b565b9250828202611bc08161164b565b91508282048414831517611bd757611bd661168d565b5b5092915050565b7f4e487b7100000000000000000000000000000000000000000000000000000000600052601260045260246000fd5b6000611c188261164b565b9150611c238361164b565b925082611c3357611c32611bde565b5b82820490509291505056fea2646970667358221220fdd648df3bcea1e78f0c868445312d576cb1cf77eb19d30133348a7f0824c7f364736f6c63430008110033",
  "devdoc": {
    "kind": "dev",
    "methods": {},
    "version": 1
  },
  "userdoc": {
    "kind": "user",
    "methods": {},
    "version": 1
  },
  "storageLayout": {
    "storage": [
      {
        "astId": 38,
        "contract": "contracts/Campaign.sol:Campaign",
        "label": "s_contributerFund",
        "offset": 0,
        "slot": "0",
        "type": "t_mapping(t_address,t_uint256)"
      },
      {
        "astId": 44,
        "contract": "contracts/Campaign.sol:Campaign",
        "label": "s_TotalFunded",
        "offset": 0,
        "slot": "1",
        "type": "t_uint256"
      },
      {
        "astId": 46,
        "contract": "contracts/Campaign.sol:Campaign",
        "label": "s_owner",
        "offset": 0,
        "slot": "2",
        "type": "t_address"
      },
      {
        "astId": 50,
        "contract": "contracts/Campaign.sol:Campaign",
        "label": "s_requests",
        "offset": 0,
        "slot": "3",
        "type": "t_array(t_struct(Request)862_storage)dyn_storage"
      },
      {
        "astId": 53,
        "contract": "contracts/Campaign.sol:Campaign",
        "label": "s_contributers",
        "offset": 0,
        "slot": "4",
        "type": "t_array(t_address)dyn_storage"
      },
      {
        "astId": 572,
        "contract": "contracts/Campaign.sol:Campaign",
        "label": "amountRecieved",
        "offset": 0,
        "slot": "5",
        "type": "t_bool"
      }
    ],
    "types": {
      "t_address": {
        "encoding": "inplace",
        "label": "address",
        "numberOfBytes": "20"
      },
      "t_array(t_address)dyn_storage": {
        "base": "t_address",
        "encoding": "dynamic_array",
        "label": "address[]",
        "numberOfBytes": "32"
      },
      "t_array(t_struct(Request)862_storage)dyn_storage": {
        "base": "t_struct(Request)862_storage",
        "encoding": "dynamic_array",
        "label": "struct Stake.Request[]",
        "numberOfBytes": "32"
      },
      "t_bool": {
        "encoding": "inplace",
        "label": "bool",
        "numberOfBytes": "1"
      },
      "t_enum(permission)654": {
        "encoding": "inplace",
        "label": "enum CampaignLib.permission",
        "numberOfBytes": "1"
      },
      "t_mapping(t_address,t_bool)": {
        "encoding": "mapping",
        "key": "t_address",
        "label": "mapping(address => bool)",
        "numberOfBytes": "32",
        "value": "t_bool"
      },
      "t_mapping(t_address,t_uint256)": {
        "encoding": "mapping",
        "key": "t_address",
        "label": "mapping(address => uint256)",
        "numberOfBytes": "32",
        "value": "t_uint256"
      },
      "t_struct(Request)862_storage": {
        "encoding": "inplace",
        "label": "struct Stake.Request",
        "members": [
          {
            "astId": 844,
            "contract": "contracts/Campaign.sol:Campaign",
            "label": "contributersVoted",
            "offset": 0,
            "slot": "0",
            "type": "t_mapping(t_address,t_bool)"
          },
          {
            "astId": 846,
            "contract": "contracts/Campaign.sol:Campaign",
            "label": "durationOfRequest",
            "offset": 0,
            "slot": "1",
            "type": "t_uint256"
          },
          {
            "astId": 848,
            "contract": "contracts/Campaign.sol:Campaign",
            "label": "requestedAmount",
            "offset": 0,
            "slot": "2",
            "type": "t_uint256"
          },
          {
            "astId": 850,
            "contract": "contracts/Campaign.sol:Campaign",
            "label": "requestedTime",
            "offset": 0,
            "slot": "3",
            "type": "t_uint256"
          },
          {
            "astId": 852,
            "contract": "contracts/Campaign.sol:Campaign",
            "label": "campaignAddress",
            "offset": 0,
            "slot": "4",
            "type": "t_address"
          },
          {
            "astId": 854,
            "contract": "contracts/Campaign.sol:Campaign",
            "label": "totalAcceptVote",
            "offset": 0,
            "slot": "5",
            "type": "t_uint256"
          },
          {
            "astId": 856,
            "contract": "contracts/Campaign.sol:Campaign",
            "label": "totalRejectVote",
            "offset": 0,
            "slot": "6",
            "type": "t_uint256"
          },
          {
            "astId": 859,
            "contract": "contracts/Campaign.sol:Campaign",
            "label": "currentStatus",
            "offset": 0,
            "slot": "7",
            "type": "t_enum(permission)654"
          },
          {
            "astId": 861,
            "contract": "contracts/Campaign.sol:Campaign",
            "label": "amountRecieved",
            "offset": 1,
            "slot": "7",
            "type": "t_bool"
          }
        ],
        "numberOfBytes": "256"
      },
      "t_uint256": {
        "encoding": "inplace",
        "label": "uint256",
        "numberOfBytes": "32"
      }
    }
  }
}