{
  "address": "0xDcF36FCf82cD25aD66a27A1813470B2EaD620908",
  "abi": [
    {
      "inputs": [],
      "name": "CampaignLib__NoEnoughAmount",
      "type": "error"
    },
    {
      "inputs": [
        {
          "internalType": "uint256",
          "name": "amount",
          "type": "uint256"
        },
        {
          "internalType": "uint256",
          "name": "bps",
          "type": "uint256"
        },
        {
          "internalType": "uint256",
          "name": "totalAmount",
          "type": "uint256"
        }
      ],
      "name": "calcualtePercent",
      "outputs": [
        {
          "internalType": "uint256",
          "name": "",
          "type": "uint256"
        }
      ],
      "stateMutability": "pure",
      "type": "function"
    }
  ],
  "transactionHash": "0xb905a850fff26d1edd2e2236ed8cbc67d7c3c863c2f9363941f47f0fa00ad183",
  "args": [],
  "numDeployments": 2,
  "solcInputHash": "c511988dd149955d8e15efffd54d15cf",
  "bytecode": "0x610290610053600b82828239805160001a607314610046577f4e487b7100000000000000000000000000000000000000000000000000000000600052600060045260246000fd5b30600052607381538281f3fe73000000000000000000000000000000000000000030146080604052600436106100355760003560e01c80637abca0581461003a575b600080fd5b610054600480360381019061004f919061010c565b61006a565b604051610061919061016e565b60405180910390f35b600081838561007991906101b8565b10156100b1576040517f5bc8727400000000000000000000000000000000000000000000000000000000815260040160405180910390fd5b8183856100be91906101b8565b6100c89190610229565b90509392505050565b600080fd5b6000819050919050565b6100e9816100d6565b81146100f457600080fd5b50565b600081359050610106816100e0565b92915050565b600080600060608486031215610125576101246100d1565b5b6000610133868287016100f7565b9350506020610144868287016100f7565b9250506040610155868287016100f7565b9150509250925092565b610168816100d6565b82525050565b6000602082019050610183600083018461015f565b92915050565b7f4e487b7100000000000000000000000000000000000000000000000000000000600052601160045260246000fd5b60006101c3826100d6565b91506101ce836100d6565b92508282026101dc816100d6565b915082820484148315176101f3576101f2610189565b5b5092915050565b7f4e487b7100000000000000000000000000000000000000000000000000000000600052601260045260246000fd5b6000610234826100d6565b915061023f836100d6565b92508261024f5761024e6101fa565b5b82820490509291505056fea26469706673582212206d829877da401d04395913094880d77f60807247169c78f70dd566f53e2935f964736f6c63430008110033",
  "devdoc": {
    "kind": "dev",
    "methods": {},
    "version": 1
  },
  "userdoc": {
    "kind": "user",
    "methods": {},
    "version": 1
  },
  "storageLayout": {
    "storage": [],
    "types": null
  }
}