{
  "address": "0x6CB3615bc64cF90e52d8a9957c2Ab6215Cd6C673",
  "abi": [
    {
      "anonymous": false,
      "inputs": [
        {
          "indexed": false,
          "internalType": "address",
          "name": "campaignCreator",
          "type": "address"
        },
        {
          "indexed": false,
          "internalType": "uint256",
          "name": "campaginId",
          "type": "uint256"
        },
        {
          "indexed": false,
          "internalType": "address",
          "name": "campaignAddress",
          "type": "address"
        }
      ],
      "name": "CampaignCreated",
      "type": "event"
    },
    {
      "inputs": [
        {
          "internalType": "uint256",
          "name": "_campaignGoal",
          "type": "uint256"
        },
        {
          "internalType": "uint256",
          "name": "_minContribution",
          "type": "uint256"
        }
      ],
      "name": "createCampaign",
      "outputs": [
        {
          "internalType": "address",
          "name": "",
          "type": "address"
        }
      ],
      "stateMutability": "nonpayable",
      "type": "function"
    },
    {
      "inputs": [
        {
          "internalType": "address",
          "name": "owner",
          "type": "address"
        }
      ],
      "name": "getAllCampaignOfOwner",
      "outputs": [
        {
          "internalType": "address[]",
          "name": "",
          "type": "address[]"
        }
      ],
      "stateMutability": "view",
      "type": "function"
    },
    {
      "inputs": [
        {
          "internalType": "address",
          "name": "owner",
          "type": "address"
        },
        {
          "internalType": "uint256",
          "name": "campaignId",
          "type": "uint256"
        }
      ],
      "name": "getCampaign",
      "outputs": [
        {
          "internalType": "address",
          "name": "",
          "type": "address"
        }
      ],
      "stateMutability": "view",
      "type": "function"
    },
    {
      "inputs": [],
      "name": "getTotalCampaign",
      "outputs": [
        {
          "internalType": "uint256",
          "name": "",
          "type": "uint256"
        }
      ],
      "stateMutability": "view",
      "type": "function"
    }
  ],
  "transactionHash": "0x7635a3598c280e2af064d9058acb0b45ac24f26e9f1a18d2f0bbc88b5d7835f8",
  "args": [],
  "numDeployments": 11,
  "solcInputHash": "d476f17fc4b28bff0158b8481cb6e060",
  "bytecode": "0x608060405234801561001057600080fd5b506127ea806100206000396000f3fe608060405234801561001057600080fd5b506004361061004c5760003560e01c8063011048491461005157806317d2997414610081578063225022681461009f578063b08328b4146100cf575b600080fd5b61006b600480360381019061006691906105d8565b6100ff565b60405161007891906106c3565b60405180910390f35b610089610285565b60405161009691906106fe565b60405180910390f35b6100b960048036038101906100b49190610745565b61028f565b6040516100c69190610794565b60405180910390f35b6100e960048036038101906100e491906107af565b6104e3565b6040516100f69190610794565b60405180910390f35b606060008060008473ffffffffffffffffffffffffffffffffffffffff1673ffffffffffffffffffffffffffffffffffffffff16815260200190815260200160002080549050905060008167ffffffffffffffff811115610163576101626107ef565b5b6040519080825280602002602001820160405280156101915781602001602082028036833780820191505090505b50905060005b8281101561027a576000808673ffffffffffffffffffffffffffffffffffffffff1673ffffffffffffffffffffffffffffffffffffffff16815260200190815260200160002081815481106101ef576101ee61081e565b5b9060005260206000200160009054906101000a900473ffffffffffffffffffffffffffffffffffffffff1682828151811061022d5761022c61081e565b5b602002602001019073ffffffffffffffffffffffffffffffffffffffff16908173ffffffffffffffffffffffffffffffffffffffff168152505080806102729061087c565b915050610197565b508092505050919050565b6000600254905090565b60008083836040516102a090610568565b6102ab9291906108c4565b604051809103906000f0801580156102c7573d6000803e3d6000fd5b5090508073ffffffffffffffffffffffffffffffffffffffff16638863dd1a336040518263ffffffff1660e01b81526004016103039190610794565b600060405180830381600087803b15801561031d57600080fd5b505af1158015610331573d6000803e3d6000fd5b505050506000803373ffffffffffffffffffffffffffffffffffffffff1673ffffffffffffffffffffffffffffffffffffffff168152602001908152602001600020819080600181540180825580915050600190039060005260206000200160009091909190916101000a81548173ffffffffffffffffffffffffffffffffffffffff021916908373ffffffffffffffffffffffffffffffffffffffff1602179055506001339080600181540180825580915050600190039060005260206000200160009091909190916101000a81548173ffffffffffffffffffffffffffffffffffffffff021916908373ffffffffffffffffffffffffffffffffffffffff16021790555060016002600082825461044a91906108ed565b925050819055507fa01c8e2b0a81830c2e4e199b4cb98ece9d41443b7f9ef51cbb778f0fa13b019d3360016000803373ffffffffffffffffffffffffffffffffffffffff1673ffffffffffffffffffffffffffffffffffffffff168152602001908152602001600020805490506104c19190610921565b836040516104d193929190610955565b60405180910390a18091505092915050565b60008060008473ffffffffffffffffffffffffffffffffffffffff1673ffffffffffffffffffffffffffffffffffffffff16815260200190815260200160002082815481106105355761053461081e565b5b9060005260206000200160009054906101000a900473ffffffffffffffffffffffffffffffffffffffff16905092915050565b611e288061098d83390190565b600080fd5b600073ffffffffffffffffffffffffffffffffffffffff82169050919050565b60006105a58261057a565b9050919050565b6105b58161059a565b81146105c057600080fd5b50565b6000813590506105d2816105ac565b92915050565b6000602082840312156105ee576105ed610575565b5b60006105fc848285016105c3565b91505092915050565b600081519050919050565b600082825260208201905092915050565b6000819050602082019050919050565b61063a8161059a565b82525050565b600061064c8383610631565b60208301905092915050565b6000602082019050919050565b600061067082610605565b61067a8185610610565b935061068583610621565b8060005b838110156106b657815161069d8882610640565b97506106a883610658565b925050600181019050610689565b5085935050505092915050565b600060208201905081810360008301526106dd8184610665565b905092915050565b6000819050919050565b6106f8816106e5565b82525050565b600060208201905061071360008301846106ef565b92915050565b610722816106e5565b811461072d57600080fd5b50565b60008135905061073f81610719565b92915050565b6000806040838503121561075c5761075b610575565b5b600061076a85828601610730565b925050602061077b85828601610730565b9150509250929050565b61078e8161059a565b82525050565b60006020820190506107a96000830184610785565b92915050565b600080604083850312156107c6576107c5610575565b5b60006107d4858286016105c3565b92505060206107e585828601610730565b9150509250929050565b7f4e487b7100000000000000000000000000000000000000000000000000000000600052604160045260246000fd5b7f4e487b7100000000000000000000000000000000000000000000000000000000600052603260045260246000fd5b7f4e487b7100000000000000000000000000000000000000000000000000000000600052601160045260246000fd5b6000610887826106e5565b91507fffffffffffffffffffffffffffffffffffffffffffffffffffffffffffffffff82036108b9576108b861084d565b5b600182019050919050565b60006040820190506108d960008301856106ef565b6108e660208301846106ef565b9392505050565b60006108f8826106e5565b9150610903836106e5565b925082820190508082111561091b5761091a61084d565b5b92915050565b600061092c826106e5565b9150610937836106e5565b925082820390508181111561094f5761094e61084d565b5b92915050565b600060608201905061096a6000830186610785565b61097760208301856106ef565b6109846040830184610785565b94935050505056fe60c06040523480156200001157600080fd5b5060405162001e2838038062001e288339818101604052810190620000379190620000d0565b81608081815250508060a0818152505033600260006101000a81548173ffffffffffffffffffffffffffffffffffffffff021916908373ffffffffffffffffffffffffffffffffffffffff160217905550505062000117565b600080fd5b6000819050919050565b620000aa8162000095565b8114620000b657600080fd5b50565b600081519050620000ca816200009f565b92915050565b60008060408385031215620000ea57620000e962000090565b5b6000620000fa85828601620000b9565b92505060206200010d85828601620000b9565b9150509250929050565b60805160a051611ce46200014460003960008181610114015261078a01526000610d920152611ce46000f3fe60806040526004361061010d5760003560e01c806372b47b8411610095578063b93863df11610064578063b93863df146104db578063c7abca4714610518578063d8a4676f14610555578063e4d89cf614610592578063fd6bc8b8146105cf57610280565b806372b47b84146104315780638863dd1a1461045c5780639fd813e314610485578063af157c19146104b057610280565b80632777e45b116100dc5780632777e45b146103495780632e1a7d4d146103865780634b73212b146103a2578063696a7319146103df5780637018a7af1461040857610280565b806309d387da146102855780630b816045146102b05780630c4f65bd146102f35780631972f7fa1461031e57610280565b36610280577f0000000000000000000000000000000000000000000000000000000000000000341015610175576040517f08c379a000000000000000000000000000000000000000000000000000000000815260040161016c9061165a565b60405180910390fd5b7f4a0f31347e3bcd7ca4807151e54057b91971fdf592fcd3056a22fa1236dea3a233346040516101a69291906116d4565b60405180910390a1346000803373ffffffffffffffffffffffffffffffffffffffff1673ffffffffffffffffffffffffffffffffffffffff16815260200190815260200160002060008282546101fc919061172c565b925050819055503460016000828254610215919061172c565b925050819055506004339080600181540180825580915050600190039060005260206000200160009091909190916101000a81548173ffffffffffffffffffffffffffffffffffffffff021916908373ffffffffffffffffffffffffffffffffffffffff1602179055005b600080fd5b34801561029157600080fd5b5061029a6105fa565b6040516102a79190611760565b60405180910390f35b3480156102bc57600080fd5b506102d760048036038101906102d291906117ac565b610602565b6040516102ea9796959493929190611813565b60405180910390f35b3480156102ff57600080fd5b5061030861075c565b6040516103159190611882565b60405180910390f35b34801561032a57600080fd5b50610333610786565b6040516103409190611760565b60405180910390f35b34801561035557600080fd5b50610370600480360381019061036b91906117ac565b6107ae565b60405161037d9190611760565b60405180910390f35b6103a0600480360381019061039b91906117ac565b6107e1565b005b3480156103ae57600080fd5b506103c960048036038101906103c491906118c9565b610bbf565b6040516103d69190611760565b60405180910390f35b3480156103eb57600080fd5b5061040660048036038101906104019190611922565b610c07565b005b34801561041457600080fd5b5061042f600480360381019061042a91906117ac565b610c8a565b005b34801561043d57600080fd5b50610446610d8e565b6040516104539190611760565b60405180910390f35b34801561046857600080fd5b50610483600480360381019061047e91906118c9565b610db6565b005b34801561049157600080fd5b5061049a610ee9565b6040516104a79190611760565b60405180910390f35b3480156104bc57600080fd5b506104c5610ef3565b6040516104d29190611a20565b60405180910390f35b3480156104e757600080fd5b5061050260048036038101906104fd9190611a42565b610f81565b60405161050f9190611760565b60405180910390f35b34801561052457600080fd5b5061053f600480360381019061053a91906118c9565b61117c565b60405161054c9190611760565b60405180910390f35b34801561056157600080fd5b5061057c600480360381019061057791906117ac565b611194565b6040516105899190611a82565b60405180910390f35b34801561059e57600080fd5b506105b960048036038101906105b491906118c9565b6111e2565b6040516105c69190611760565b60405180910390f35b3480156105db57600080fd5b506105e461122a565b6040516105f19190611760565b60405180910390f35b600047905090565b60008060008060008060006003888154811061062157610620611a9d565b5b9060005260206000209060080201600201546003898154811061064757610646611a9d565b5b90600052602060002090600802016003015460038a8154811061066d5761066c611a9d565b5b90600052602060002090600802016001015460038b8154811061069357610692611a9d565b5b906000526020600020906008020160070160009054906101000a900460ff1660028111156106c4576106c3611acc565b5b60038c815481106106d8576106d7611a9d565b5b90600052602060002090600802016005015460038d815481106106fe576106fd611a9d565b5b90600052602060002090600802016006015460038e8154811061072457610723611a9d565b5b906000526020600020906008020160070160019054906101000a900460ff169650965096509650965096509650919395979092949650565b6000600260009054906101000a900473ffffffffffffffffffffffffffffffffffffffff16905090565b60007f0000000000000000000000000000000000000000000000000000000000000000905090565b60006107da600383815481106107c7576107c6611a9d565b5b9060005260206000209060080201611237565b9050919050565b600260009054906101000a900473ffffffffffffffffffffffffffffffffffffffff1673ffffffffffffffffffffffffffffffffffffffff163373ffffffffffffffffffffffffffffffffffffffff16146108975733600260009054906101000a900473ffffffffffffffffffffffffffffffffffffffff166040517fffa2d83c00000000000000000000000000000000000000000000000000000000815260040161088e929190611afb565b60405180910390fd5b806108a181610c8a565b600060028111156108b5576108b4611acc565b5b6108df600383815481106108cc576108cb611a9d565b5b9060005260206000209060080201611276565b60028111156108f1576108f0611acc565b5b03610928576040517fbae63cc200000000000000000000000000000000000000000000000000000000815260040160405180910390fd5b60028081111561093b5761093a611acc565b5b6109656003838154811061095257610951611a9d565b5b9060005260206000209060080201611276565b600281111561097757610976611acc565b5b036109ae576040517f3db289e300000000000000000000000000000000000000000000000000000000815260040160405180910390fd5b60011515600382815481106109c6576109c5611a9d565b5b906000526020600020906008020160070160019054906101000a900460ff16151503610a1e576040517f394c43ce00000000000000000000000000000000000000000000000000000000815260040160405180910390fd5b6000610a4a60038481548110610a3757610a36611a9d565b5b9060005260206000209060080201611291565b905080471015610a935780476040517fae7a822f000000000000000000000000000000000000000000000000000000008152600401610a8a929190611b24565b60405180910390fd5b6000600260009054906101000a900473ffffffffffffffffffffffffffffffffffffffff1673ffffffffffffffffffffffffffffffffffffffff1682604051610adb90611b7e565b60006040518083038185875af1925050503d8060008114610b18576040519150601f19603f3d011682016040523d82523d6000602084013e610b1d565b606091505b5050905080610b58576040517f4c3ac88a00000000000000000000000000000000000000000000000000000000815260040160405180910390fd5b610b8260038581548110610b6f57610b6e611a9d565b5b906000526020600020906008020161129f565b7f78607c3338a50a97f0960b9ebb80a74d63115b7f462a4ea45c55abb0e5a3656382604051610bb19190611760565b60405180910390a150505050565b60008060008373ffffffffffffffffffffffffffffffffffffffff1673ffffffffffffffffffffffffffffffffffffffff168152602001908152602001600020549050919050565b6000610c566000803373ffffffffffffffffffffffffffffffffffffffff1673ffffffffffffffffffffffffffffffffffffffff168152602001908152602001600020546127106001546112bf565b9050610c8560038481548110610c6f57610c6e611a9d565b5b9060005260206000209060080201833384611326565b505050565b610cb460038281548110610ca157610ca0611a9d565b5b90600052602060002090600802016114ec565b7f457f287d718c8d7a81d2f267aa5185af264c105281dae8a108039c61a16fd69d8160016002811115610cea57610ce9611acc565b5b610d1460038581548110610d0157610d00611a9d565b5b9060005260206000209060080201611276565b6002811115610d2657610d25611acc565b5b1460038481548110610d3b57610d3a611a9d565b5b90600052602060002090600802016005015460038581548110610d6157610d60611a9d565b5b906000526020600020906008020160060154604051610d839493929190611b93565b60405180910390a150565b60007f0000000000000000000000000000000000000000000000000000000000000000905090565b600260009054906101000a900473ffffffffffffffffffffffffffffffffffffffff1673ffffffffffffffffffffffffffffffffffffffff163373ffffffffffffffffffffffffffffffffffffffff1614610e6c5733600260009054906101000a900473ffffffffffffffffffffffffffffffffffffffff166040517fffa2d83c000000000000000000000000000000000000000000000000000000008152600401610e63929190611afb565b60405180910390fd5b80600260006101000a81548173ffffffffffffffffffffffffffffffffffffffff021916908373ffffffffffffffffffffffffffffffffffffffff1602179055507f0d18b5fd22306e373229b9439188228edca81207d1667f604daf6cef8aa3ee673382604051610ede929190611afb565b60405180910390a150565b6000600154905090565b60606004805480602002602001604051908101604052809291908181526020018280548015610f7757602002820191906000526020600020905b8160009054906101000a900473ffffffffffffffffffffffffffffffffffffffff1673ffffffffffffffffffffffffffffffffffffffff1681526020019060010190808311610f2d575b5050505050905090565b6000600260009054906101000a900473ffffffffffffffffffffffffffffffffffffffff1673ffffffffffffffffffffffffffffffffffffffff163373ffffffffffffffffffffffffffffffffffffffff16146110395733600260009054906101000a900473ffffffffffffffffffffffffffffffffffffffff166040517fffa2d83c000000000000000000000000000000000000000000000000000000008152600401611030929190611afb565b60405180910390fd5b600060036001816001815401808255809150500390600052602060002090600802019050838160010181905550828160020181905550428160030181905550600081600501819055506000816006018190555060008160070160016101000a81548160ff021916908315150217905550308160040160006101000a81548173ffffffffffffffffffffffffffffffffffffffff021916908373ffffffffffffffffffffffffffffffffffffffff16021790555060008160070160006101000a81548160ff0219169083600281111561111457611113611acc565b5b02179055507fa5f7f4c8f7ba98ee825a5d8b155830a9dd4e7d29fcc431c6c3bcce27776c2784600160038054905061114c9190611bd8565b6040516111599190611760565b60405180910390a160016003805490506111739190611bd8565b91505092915050565b60006020528060005260406000206000915090505481565b6000600382815481106111aa576111a9611a9d565b5b906000526020600020906008020160070160009054906101000a900460ff1660028111156111db576111da611acc565b5b9050919050565b60008060008373ffffffffffffffffffffffffffffffffffffffff1673ffffffffffffffffffffffffffffffffffffffff168152602001908152602001600020549050919050565b6000600480549050905090565b6000808260010154836003015461124e919061172c565b9050804210611261576000915050611271565b428161126d9190611bd8565b9150505b919050565b60008160070160009054906101000a900460ff169050919050565b600081600201549050919050565b60018160070160016101000a81548160ff02191690831515021790555050565b60008183856112ce9190611c0c565b1015611306576040517fcf5aa87800000000000000000000000000000000000000000000000000000000815260040160405180910390fd5b8183856113139190611c0c565b61131d9190611c7d565b90509392505050565b8360008061133383611237565b9050811561138657600081111561138157806040517f72819b110000000000000000000000000000000000000000000000000000000081526004016113789190611760565b60405180910390fd5b6113c1565b600081036113c0576040517fc1ae823a00000000000000000000000000000000000000000000000000000000815260040160405180910390fd5b5b8660000160008673ffffffffffffffffffffffffffffffffffffffff1673ffffffffffffffffffffffffffffffffffffffff16815260200190815260200160002060009054906101000a900460ff1615611447576040517fd2383bdc00000000000000000000000000000000000000000000000000000000815260040160405180910390fd5b60018760000160008773ffffffffffffffffffffffffffffffffffffffff1673ffffffffffffffffffffffffffffffffffffffff16815260200190815260200160002060006101000a81548160ff02191690831515021790555085156114c757838760050160008282546114bb919061172c565b925050819055506114e3565b838760060160008282546114db919061172c565b925050819055505b50505050505050565b80600160006114fa83611237565b9050811561154d57600081111561154857806040517f72819b1100000000000000000000000000000000000000000000000000000000815260040161153f9190611760565b60405180910390fd5b611588565b60008103611587576040517fc1ae823a00000000000000000000000000000000000000000000000000000000815260040160405180910390fd5b5b83600601548460050154106115c95760018460070160006101000a81548160ff021916908360028111156115bf576115be611acc565b5b02179055506115f7565b60028460070160006101000a81548160ff021916908360028111156115f1576115f0611acc565b5b02179055505b50505050565b600082825260208201905092915050565b7f496e6372656173652074686520636f6e747269627574696f6e20616d6f756e74600082015250565b60006116446020836115fd565b915061164f8261160e565b602082019050919050565b6000602082019050818103600083015261167381611637565b9050919050565b600073ffffffffffffffffffffffffffffffffffffffff82169050919050565b60006116a58261167a565b9050919050565b6116b58161169a565b82525050565b6000819050919050565b6116ce816116bb565b82525050565b60006040820190506116e960008301856116ac565b6116f660208301846116c5565b9392505050565b7f4e487b7100000000000000000000000000000000000000000000000000000000600052601160045260246000fd5b6000611737826116bb565b9150611742836116bb565b925082820190508082111561175a576117596116fd565b5b92915050565b600060208201905061177560008301846116c5565b92915050565b600080fd5b611789816116bb565b811461179457600080fd5b50565b6000813590506117a681611780565b92915050565b6000602082840312156117c2576117c161177b565b5b60006117d084828501611797565b91505092915050565b600063ffffffff82169050919050565b6117f2816117d9565b82525050565b60008115159050919050565b61180d816117f8565b82525050565b600060e082019050611828600083018a6116c5565b61183560208301896116c5565b61184260408301886116c5565b61184f60608301876117e9565b61185c60808301866116c5565b61186960a08301856116c5565b61187660c0830184611804565b98975050505050505050565b600060208201905061189760008301846116ac565b92915050565b6118a68161169a565b81146118b157600080fd5b50565b6000813590506118c38161189d565b92915050565b6000602082840312156118df576118de61177b565b5b60006118ed848285016118b4565b91505092915050565b6118ff816117f8565b811461190a57600080fd5b50565b60008135905061191c816118f6565b92915050565b600080604083850312156119395761193861177b565b5b600061194785828601611797565b92505060206119588582860161190d565b9150509250929050565b600081519050919050565b600082825260208201905092915050565b6000819050602082019050919050565b6119978161169a565b82525050565b60006119a9838361198e565b60208301905092915050565b6000602082019050919050565b60006119cd82611962565b6119d7818561196d565b93506119e28361197e565b8060005b83811015611a135781516119fa888261199d565b9750611a05836119b5565b9250506001810190506119e6565b5085935050505092915050565b60006020820190508181036000830152611a3a81846119c2565b905092915050565b60008060408385031215611a5957611a5861177b565b5b6000611a6785828601611797565b9250506020611a7885828601611797565b9150509250929050565b6000602082019050611a9760008301846117e9565b92915050565b7f4e487b7100000000000000000000000000000000000000000000000000000000600052603260045260246000fd5b7f4e487b7100000000000000000000000000000000000000000000000000000000600052602160045260246000fd5b6000604082019050611b1060008301856116ac565b611b1d60208301846116ac565b9392505050565b6000604082019050611b3960008301856116c5565b611b4660208301846116c5565b9392505050565b600081905092915050565b50565b6000611b68600083611b4d565b9150611b7382611b58565b600082019050919050565b6000611b8982611b5b565b9150819050919050565b6000608082019050611ba860008301876116c5565b611bb56020830186611804565b611bc260408301856116c5565b611bcf60608301846116c5565b95945050505050565b6000611be3826116bb565b9150611bee836116bb565b9250828203905081811115611c0657611c056116fd565b5b92915050565b6000611c17826116bb565b9150611c22836116bb565b9250828202611c30816116bb565b91508282048414831517611c4757611c466116fd565b5b5092915050565b7f4e487b7100000000000000000000000000000000000000000000000000000000600052601260045260246000fd5b6000611c88826116bb565b9150611c93836116bb565b925082611ca357611ca2611c4e565b5b82820490509291505056fea2646970667358221220278fbac032e42221e65c98cf39602c8958170d76f7bb1afab15621f4b3bcb55164736f6c63430008110033a26469706673582212204ab7738fb50babdc9c7cd4b550e8186d16858546dd80880caf074c2f884bf07064736f6c63430008110033",
  "devdoc": {
    "kind": "dev",
    "methods": {},
    "version": 1
  },
  "userdoc": {
    "kind": "user",
    "methods": {},
    "version": 1
  },
  "storageLayout": {
    "storage": [
      {
        "astId": 681,
        "contract": "contracts/CrowdFunding.sol:CrowdFunding",
        "label": "s_campaigns",
        "offset": 0,
        "slot": "0",
        "type": "t_mapping(t_address,t_array(t_contract(Campaign)662)dyn_storage)"
      },
      {
        "astId": 684,
        "contract": "contracts/CrowdFunding.sol:CrowdFunding",
        "label": "s_campaignCreaters",
        "offset": 0,
        "slot": "1",
        "type": "t_array(t_address)dyn_storage"
      },
      {
        "astId": 686,
        "contract": "contracts/CrowdFunding.sol:CrowdFunding",
        "label": "s_totalCampaign",
        "offset": 0,
        "slot": "2",
        "type": "t_uint256"
      }
    ],
    "types": {
      "t_address": {
        "encoding": "inplace",
        "label": "address",
        "numberOfBytes": "20"
      },
      "t_array(t_address)dyn_storage": {
        "base": "t_address",
        "encoding": "dynamic_array",
        "label": "address[]",
        "numberOfBytes": "32"
      },
      "t_array(t_contract(Campaign)662)dyn_storage": {
        "base": "t_contract(Campaign)662",
        "encoding": "dynamic_array",
        "label": "contract Campaign[]",
        "numberOfBytes": "32"
      },
      "t_contract(Campaign)662": {
        "encoding": "inplace",
        "label": "contract Campaign",
        "numberOfBytes": "20"
      },
      "t_mapping(t_address,t_array(t_contract(Campaign)662)dyn_storage)": {
        "encoding": "mapping",
        "key": "t_address",
        "label": "mapping(address => contract Campaign[])",
        "numberOfBytes": "32",
        "value": "t_array(t_contract(Campaign)662)dyn_storage"
      },
      "t_uint256": {
        "encoding": "inplace",
        "label": "uint256",
        "numberOfBytes": "32"
      }
    }
  }
}