{
    "contractName": "FunraiseFactory",
    "abi": [
        {
            "inputs": [
                {
                    "internalType": "uint256",
                    "name": "",
                    "type": "uint256"
                }
            ],
            "name": "fundraisers",
            "outputs": [
                {
                    "internalType": "contract Funraiser",
                    "name": "",
                    "type": "address"
                }
            ],
            "stateMutability": "view",
            "type": "function",
            "constant": true
        },
        {
            "inputs": [
                {
                    "internalType": "contract Funraiser",
                    "name": "",
                    "type": "address"
                }
            ],
            "name": "funrId",
            "outputs": [
                {
                    "internalType": "string",
                    "name": "",
                    "type": "string"
                }
            ],
            "stateMutability": "view",
            "type": "function",
            "constant": true
        },
        {
            "inputs": [
                {
                    "internalType": "uint256",
                    "name": "minAmo",
                    "type": "uint256"
                },
                {
                    "internalType": "string",
                    "name": "id",
                    "type": "string"
                }
            ],
            "name": "createFunraiser",
            "outputs": [],
            "stateMutability": "nonpayable",
            "type": "function"
        },
        {
            "inputs": [],
            "name": "getallFundraisers",
            "outputs": [
                {
                    "internalType": "contract Funraiser[]",
                    "name": "",
                    "type": "address[]"
                }
            ],
            "stateMutability": "view",
            "type": "function",
            "constant": true
        }
    ],
    "bytecode": "0x608060405234801561001057600080fd5b506119da806100206000396000f3fe60806040523480156200001157600080fd5b5060043610620000525760003560e01c80631e9f35cf146200005757806327200995146200008d5780634925f85c14620000af578063f38f72fb14620000cf575b600080fd5b6200007560048036038101906200006f9190620004c5565b62000105565b6040516200008491906200059b565b60405180910390f35b62000097620001ad565b604051620000a69190620006e7565b60405180910390f35b620000cd6004803603810190620000c7919062000897565b6200023d565b005b620000ed6004803603810190620000e79190620008fd565b6200033a565b604051620000fc919062000940565b60405180910390f35b6001602052806000526040600020600091509050805462000126906200098c565b80601f016020809104026020016040519081016040528092919081815260200182805462000154906200098c565b8015620001a55780601f106200017957610100808354040283529160200191620001a5565b820191906000526020600020905b8154815290600101906020018083116200018757829003601f168201915b505050505081565b606060008054806020026020016040519081016040528092919081815260200182805480156200023357602002820191906000526020600020905b8160009054906101000a900473ffffffffffffffffffffffffffffffffffffffff1673ffffffffffffffffffffffffffffffffffffffff1681526020019060010190808311620001e8575b5050505050905090565b600082336040516200024f906200037a565b6200025c929190620009e4565b604051809103906000f08015801562000279573d6000803e3d6000fd5b50905081600160008373ffffffffffffffffffffffffffffffffffffffff1673ffffffffffffffffffffffffffffffffffffffff1681526020019081526020016000209080519060200190620002d192919062000388565b506000819080600181540180825580915050600190039060005260206000200160009091909190916101000a81548173ffffffffffffffffffffffffffffffffffffffff021916908373ffffffffffffffffffffffffffffffffffffffff160217905550505050565b600081815481106200034b57600080fd5b906000526020600020016000915054906101000a900473ffffffffffffffffffffffffffffffffffffffff1681565b610f938062000a1283390190565b82805462000396906200098c565b90600052602060002090601f016020900481019282620003ba576000855562000406565b82601f10620003d557805160ff191683800117855562000406565b8280016001018555821562000406579182015b8281111562000405578251825591602001919060010190620003e8565b5b50905062000415919062000419565b5090565b5b80821115620004345760008160009055506001016200041a565b5090565b6000604051905090565b600080fd5b600080fd5b600073ffffffffffffffffffffffffffffffffffffffff82169050919050565b600062000479826200044c565b9050919050565b60006200048d826200046c565b9050919050565b6200049f8162000480565b8114620004ab57600080fd5b50565b600081359050620004bf8162000494565b92915050565b600060208284031215620004de57620004dd62000442565b5b6000620004ee84828501620004ae565b91505092915050565b600081519050919050565b600082825260208201905092915050565b60005b838110156200053357808201518184015260208101905062000516565b8381111562000543576000848401525b50505050565b6000601f19601f8301169050919050565b60006200056782620004f7565b62000573818562000502565b93506200058581856020860162000513565b620005908162000549565b840191505092915050565b60006020820190508181036000830152620005b781846200055a565b905092915050565b600081519050919050565b600082825260208201905092915050565b6000819050602082019050919050565b6000819050919050565b600062000616620006106200060a846200044c565b620005eb565b6200044c565b9050919050565b60006200062a82620005f5565b9050919050565b60006200063e826200061d565b9050919050565b620006508162000631565b82525050565b600062000664838362000645565b60208301905092915050565b6000602082019050919050565b60006200068a82620005bf565b620006968185620005ca565b9350620006a383620005db565b8060005b83811015620006da578151620006be888262000656565b9750620006cb8362000670565b925050600181019050620006a7565b5085935050505092915050565b600060208201905081810360008301526200070381846200067d565b905092915050565b6000819050919050565b62000720816200070b565b81146200072c57600080fd5b50565b600081359050620007408162000715565b92915050565b600080fd5b600080fd5b7f4e487b7100000000000000000000000000000000000000000000000000000000600052604160045260246000fd5b6200078a8262000549565b810181811067ffffffffffffffff82111715620007ac57620007ab62000750565b5b80604052505050565b6000620007c162000438565b9050620007cf82826200077f565b919050565b600067ffffffffffffffff821115620007f257620007f162000750565b5b620007fd8262000549565b9050602081019050919050565b82818337600083830152505050565b6000620008306200082a84620007d4565b620007b5565b9050828152602081018484840111156200084f576200084e6200074b565b5b6200085c8482856200080a565b509392505050565b600082601f8301126200087c576200087b62000746565b5b81356200088e84826020860162000819565b91505092915050565b60008060408385031215620008b157620008b062000442565b5b6000620008c1858286016200072f565b925050602083013567ffffffffffffffff811115620008e557620008e462000447565b5b620008f38582860162000864565b9150509250929050565b60006020828403121562000916576200091562000442565b5b600062000926848285016200072f565b91505092915050565b6200093a8162000631565b82525050565b60006020820190506200095760008301846200092f565b92915050565b7f4e487b7100000000000000000000000000000000000000000000000000000000600052602260045260246000fd5b60006002820490506001821680620009a557607f821691505b60208210811415620009bc57620009bb6200095d565b5b50919050565b620009cd816200070b565b82525050565b620009de816200046c565b82525050565b6000604082019050620009fb6000830185620009c2565b62000a0a6020830184620009d3565b939250505056fe60806040523480156200001157600080fd5b5060405162000f9338038062000f9383398181016040528101906200003791906200012b565b806000806101000a81548173ffffffffffffffffffffffffffffffffffffffff021916908373ffffffffffffffffffffffffffffffffffffffff16021790555081600181905550505062000172565b600080fd5b6000819050919050565b620000a0816200008b565b8114620000ac57600080fd5b50565b600081519050620000c08162000095565b92915050565b600073ffffffffffffffffffffffffffffffffffffffff82169050919050565b6000620000f382620000c6565b9050919050565b6200010581620000e6565b81146200011157600080fd5b50565b6000815190506200012581620000fa565b92915050565b6000806040838503121562000145576200014462000086565b5b60006200015585828601620000af565b9250506020620001688582860162000114565b9150509250929050565b610e1180620001826000396000f3fe6080604052600436106100865760003560e01c8063c019109811610059578063c01910981461015d578063d6555b1514610186578063d7d1bbdb146101b1578063ed88c68e146101da578063fb6094c9146101e457610086565b8063460b9a871461008b578063481c6a75146100c857806381d12c58146100f35780638a9cfd5514610134575b600080fd5b34801561009757600080fd5b506100b260048036038101906100ad91906108c2565b61020f565b6040516100bf919061090a565b60405180910390f35b3480156100d457600080fd5b506100dd61022f565b6040516100ea9190610934565b60405180910390f35b3480156100ff57600080fd5b5061011a60048036038101906101159190610985565b610253565b60405161012b959493929190610a5a565b60405180910390f35b34801561014057600080fd5b5061015b60048036038101906101569190610be9565b61034e565b005b34801561016957600080fd5b50610184600480360381019061017f9190610985565b61045c565b005b34801561019257600080fd5b5061019b6105c7565b6040516101a89190610c58565b60405180910390f35b3480156101bd57600080fd5b506101d860048036038101906101d39190610985565b6105cd565b005b6101e2610727565b005b3480156101f057600080fd5b506101f96107a7565b6040516102069190610c58565b60405180910390f35b60026020528060005260406000206000915054906101000a900460ff1681565b60008054906101000a900473ffffffffffffffffffffffffffffffffffffffff1681565b6004818154811061026357600080fd5b906000526020600020906005020160009150905080600001805461028690610ca2565b80601f01602080910402602001604051908101604052809291908181526020018280546102b290610ca2565b80156102ff5780601f106102d4576101008083540402835291602001916102ff565b820191906000526020600020905b8154815290600101906020018083116102e257829003601f168201915b5050505050908060010154908060020160009054906101000a900473ffffffffffffffffffffffffffffffffffffffff16908060020160149054906101000a900460ff16908060030154905085565b60008054906101000a900473ffffffffffffffffffffffffffffffffffffffff1673ffffffffffffffffffffffffffffffffffffffff163373ffffffffffffffffffffffffffffffffffffffff16146103a657600080fd5b600060046001816001815401808255809150500390600052602060002090600502019050838160000190805190602001906103e29291906107ad565b5082816001018190555060008160020160146101000a81548160ff02191690831515021790555060008160030181905550818160020160006101000a81548173ffffffffffffffffffffffffffffffffffffffff021916908373ffffffffffffffffffffffffffffffffffffffff16021790555050505050565b60008054906101000a900473ffffffffffffffffffffffffffffffffffffffff1673ffffffffffffffffffffffffffffffffffffffff163373ffffffffffffffffffffffffffffffffffffffff16146104b457600080fd5b6000600482815481106104ca576104c9610cd4565b5b90600052602060002090600502019050600015158160020160149054906101000a900460ff161515146104fc57600080fd5b806003015460026003546105109190610d61565b1061051a57600080fd5b60018160020160146101000a81548160ff0219169083151502179055508060020160009054906101000a900473ffffffffffffffffffffffffffffffffffffffff1673ffffffffffffffffffffffffffffffffffffffff166108fc82600101549081150290604051600060405180830381858888f193505050501580156105a5573d6000803e3d6000fd5b5060018160020160146101000a81548160ff0219169083151502179055505050565b60035481565b60011515600260003373ffffffffffffffffffffffffffffffffffffffff1673ffffffffffffffffffffffffffffffffffffffff16815260200190815260200160002060009054906101000a900460ff1615151461062a57600080fd5b6000600482815481106106405761063f610cd4565b5b90600052602060002090600502019050600015158160040160003373ffffffffffffffffffffffffffffffffffffffff1673ffffffffffffffffffffffffffffffffffffffff16815260200190815260200160002060009054906101000a900460ff161515146106af57600080fd5b8060030160008154809291906106c490610d92565b919050555060018160040160003373ffffffffffffffffffffffffffffffffffffffff1673ffffffffffffffffffffffffffffffffffffffff16815260200190815260200160002060006101000a81548160ff0219169083151502179055505050565b600154341161073557600080fd5b6001600260003373ffffffffffffffffffffffffffffffffffffffff1673ffffffffffffffffffffffffffffffffffffffff16815260200190815260200160002060006101000a81548160ff021916908315150217905550600360008154809291906107a090610d92565b9190505550565b60015481565b8280546107b990610ca2565b90600052602060002090601f0160209004810192826107db5760008555610822565b82601f106107f457805160ff1916838001178555610822565b82800160010185558215610822579182015b82811115610821578251825591602001919060010190610806565b5b50905061082f9190610833565b5090565b5b8082111561084c576000816000905550600101610834565b5090565b6000604051905090565b600080fd5b600080fd5b600073ffffffffffffffffffffffffffffffffffffffff82169050919050565b600061088f82610864565b9050919050565b61089f81610884565b81146108aa57600080fd5b50565b6000813590506108bc81610896565b92915050565b6000602082840312156108d8576108d761085a565b5b60006108e6848285016108ad565b91505092915050565b60008115159050919050565b610904816108ef565b82525050565b600060208201905061091f60008301846108fb565b92915050565b61092e81610884565b82525050565b60006020820190506109496000830184610925565b92915050565b6000819050919050565b6109628161094f565b811461096d57600080fd5b50565b60008135905061097f81610959565b92915050565b60006020828403121561099b5761099a61085a565b5b60006109a984828501610970565b91505092915050565b600081519050919050565b600082825260208201905092915050565b60005b838110156109ec5780820151818401526020810190506109d1565b838111156109fb576000848401525b50505050565b6000601f19601f8301169050919050565b6000610a1d826109b2565b610a2781856109bd565b9350610a378185602086016109ce565b610a4081610a01565b840191505092915050565b610a548161094f565b82525050565b600060a0820190508181036000830152610a748188610a12565b9050610a836020830187610a4b565b610a906040830186610925565b610a9d60608301856108fb565b610aaa6080830184610a4b565b9695505050505050565b600080fd5b600080fd5b7f4e487b7100000000000000000000000000000000000000000000000000000000600052604160045260246000fd5b610af682610a01565b810181811067ffffffffffffffff82111715610b1557610b14610abe565b5b80604052505050565b6000610b28610850565b9050610b348282610aed565b919050565b600067ffffffffffffffff821115610b5457610b53610abe565b5b610b5d82610a01565b9050602081019050919050565b82818337600083830152505050565b6000610b8c610b8784610b39565b610b1e565b905082815260208101848484011115610ba857610ba7610ab9565b5b610bb3848285610b6a565b509392505050565b600082601f830112610bd057610bcf610ab4565b5b8135610be0848260208601610b79565b91505092915050565b600080600060608486031215610c0257610c0161085a565b5b600084013567ffffffffffffffff811115610c2057610c1f61085f565b5b610c2c86828701610bbb565b9350506020610c3d86828701610970565b9250506040610c4e868287016108ad565b9150509250925092565b6000602082019050610c6d6000830184610a4b565b92915050565b7f4e487b7100000000000000000000000000000000000000000000000000000000600052602260045260246000fd5b60006002820490506001821680610cba57607f821691505b60208210811415610cce57610ccd610c73565b5b50919050565b7f4e487b7100000000000000000000000000000000000000000000000000000000600052603260045260246000fd5b7f4e487b7100000000000000000000000000000000000000000000000000000000600052601260045260246000fd5b7f4e487b7100000000000000000000000000000000000000000000000000000000600052601160045260246000fd5b6000610d6c8261094f565b9150610d778361094f565b925082610d8757610d86610d03565b5b828204905092915050565b6000610d9d8261094f565b91507fffffffffffffffffffffffffffffffffffffffffffffffffffffffffffffffff821415610dd057610dcf610d32565b5b60018201905091905056fea26469706673582212206bd6f20fc07cce2736d1e78b9272e6e5d4f7cc95a4263a18f67542869a46930864736f6c63430008090033a2646970667358221220e59a16e782c072d043bd0da72394ca1d56a2e7e07bc8e455aedeb663607ffe6264736f6c63430008090033",
    "immutableReferences": {},
    "source": "\npragma solidity 0.8.9;\n\n\ncontract FunraiseFactory {\n      \n   \n    struct Fundra {\n\n        string id;\n        address addoffunr;\n    }\n\n    Funraiser[] public fundraisers; \n    mapping(Funraiser => string) public funrId;\n\n    function createFunraiser(uint minAmo, string memory id) public {\n        Funraiser curradd = new Funraiser(minAmo, msg.sender);\n        funrId[curradd] = id; \n        fundraisers.push(curradd);\n    }\n\n    function getallFundraisers() view public returns (Funraiser[] memory) {\n\n    return fundraisers;\n}\n    \n}\n\n\ncontract Funraiser {\n\n    \n\n    struct Request {\n\n        string description;\n        uint value;\n        address recepient;\n        bool isComplete;\n        uint apprCount;\n        mapping(address => bool) approvers;\n    }\n\n    address  public manager; \n    uint    public minContri;\n    mapping( address=>bool) public doners;\n    uint  public totLen;\n    Request[] public requests;\n    \n    constructor (uint val , address creator) public {\n        manager = creator;\n        minContri = val;\n    }\n    modifier accessRestricted() {\n        \n        require(msg.sender == manager);\n        _;\n    }\n\n    modifier accessApprove() {\n        \n        require(doners[msg.sender] == true);\n        _;\n    }\n\n    function donate() public payable {\n        require(msg.value > minContri);\n        doners[msg.sender] = true;\n        totLen++;\n    }\n\n    function createRequest(string memory des, uint value, address recp) \n    public accessRestricted {\n       // Request storage newReq  =  Request(des, value, recp, false, 0);\n        Request storage newRequest = requests.push();\n        newRequest.description = des;\n        newRequest.value = value;\n        newRequest.isComplete = false;\n        newRequest.apprCount = 0;\n        newRequest.recepient = recp;\n        //here we don't need to inilize appovers map caz this is refr type dataType \n        //and all others are value type.\n        //requests.push(newReq);\n    }\n\n    function approveRequest(uint index) public accessApprove {\n\n        Request storage curRequest = requests[index]; \n\n        require(curRequest.approvers[msg.sender] == false);\n        curRequest.apprCount++;\n        curRequest.approvers[msg.sender] = true;\n    }\n\n    function greenflagForReq(uint index) public accessRestricted {\n        Request storage curRequest = requests[index];\n        require(curRequest.isComplete == false);\n        require((totLen/2) < curRequest.apprCount);\n        curRequest.isComplete = true;\n        payable(curRequest.recepient).transfer(curRequest.value);\n        curRequest.isComplete = true;\n\n    }\n \n\n}",
    "sourcePath": "/root/intern/decentify/contracts/Decentify.sol",
    "compiler": {
        "name": "solc",
        "version": "0.8.9+commit.e5eed63a.Emscripten.clang"
    },
    "schemaVersion": "3.4.3",
    "updatedAt": "2021-10-31T23:27:01.766Z",
    "networkType": "ethereum",
    "devdoc": {
        "kind": "dev",
        "methods": {},
        "version": 1
    },
    "userdoc": {
        "kind": "user",
        "methods": {},
        "version": 1
    }
}