{
  "address": "0x2C42f917D50afBe94D754BF5555E85145300433A",
  "abi": [
    {
      "anonymous": false,
      "inputs": [
        {
          "indexed": false,
          "internalType": "address",
          "name": "campaignCreator",
          "type": "address"
        },
        {
          "indexed": false,
          "internalType": "uint256",
          "name": "campaginId",
          "type": "uint256"
        },
        {
          "indexed": false,
          "internalType": "address",
          "name": "campaignAddress",
          "type": "address"
        }
      ],
      "name": "CampaignCreated",
      "type": "event"
    },
    {
      "inputs": [
        {
          "internalType": "uint256",
          "name": "_campaignGoal",
          "type": "uint256"
        },
        {
          "internalType": "uint256",
          "name": "_minContribution",
          "type": "uint256"
        }
      ],
      "name": "createCampaign",
      "outputs": [
        {
          "internalType": "address",
          "name": "",
          "type": "address"
        }
      ],
      "stateMutability": "nonpayable",
      "type": "function"
    },
    {
      "inputs": [
        {
          "internalType": "address",
          "name": "owner",
          "type": "address"
        }
      ],
      "name": "getAllCampaignOfOwner",
      "outputs": [
        {
          "internalType": "address[]",
          "name": "",
          "type": "address[]"
        }
      ],
      "stateMutability": "view",
      "type": "function"
    },
    {
      "inputs": [
        {
          "internalType": "address",
          "name": "owner",
          "type": "address"
        },
        {
          "internalType": "uint256",
          "name": "campaignId",
          "type": "uint256"
        }
      ],
      "name": "getCampaign",
      "outputs": [
        {
          "internalType": "address",
          "name": "",
          "type": "address"
        }
      ],
      "stateMutability": "view",
      "type": "function"
    },
    {
      "inputs": [],
      "name": "getTotalCampaign",
      "outputs": [
        {
          "internalType": "uint256",
          "name": "",
          "type": "uint256"
        }
      ],
      "stateMutability": "view",
      "type": "function"
    }
  ],
  "transactionHash": "0xd69fdd5a1cec3a969046d038841cb1b0e24f13805f75ef350ca6bdd6bcd723b2",
  "args": [],
  "numDeployments": 3,
  "solcInputHash": "c4e45435b1845d0a1d1fa06787fa607a",
  "bytecode": "0x608060405234801561001057600080fd5b5061269f806100206000396000f3fe608060405234801561001057600080fd5b506004361061004c5760003560e01c8063011048491461005157806317d2997414610081578063225022681461009f578063b08328b4146100cf575b600080fd5b61006b600480360381019061006691906105d8565b6100ff565b60405161007891906106c3565b60405180910390f35b610089610285565b60405161009691906106fe565b60405180910390f35b6100b960048036038101906100b49190610745565b61028f565b6040516100c69190610794565b60405180910390f35b6100e960048036038101906100e491906107af565b6104e3565b6040516100f69190610794565b60405180910390f35b606060008060008473ffffffffffffffffffffffffffffffffffffffff1673ffffffffffffffffffffffffffffffffffffffff16815260200190815260200160002080549050905060008167ffffffffffffffff811115610163576101626107ef565b5b6040519080825280602002602001820160405280156101915781602001602082028036833780820191505090505b50905060005b8281101561027a576000808673ffffffffffffffffffffffffffffffffffffffff1673ffffffffffffffffffffffffffffffffffffffff16815260200190815260200160002081815481106101ef576101ee61081e565b5b9060005260206000200160009054906101000a900473ffffffffffffffffffffffffffffffffffffffff1682828151811061022d5761022c61081e565b5b602002602001019073ffffffffffffffffffffffffffffffffffffffff16908173ffffffffffffffffffffffffffffffffffffffff168152505080806102729061087c565b915050610197565b508092505050919050565b6000600254905090565b60008083836040516102a090610568565b6102ab9291906108c4565b604051809103906000f0801580156102c7573d6000803e3d6000fd5b5090508073ffffffffffffffffffffffffffffffffffffffff16638863dd1a336040518263ffffffff1660e01b81526004016103039190610794565b600060405180830381600087803b15801561031d57600080fd5b505af1158015610331573d6000803e3d6000fd5b505050506000803373ffffffffffffffffffffffffffffffffffffffff1673ffffffffffffffffffffffffffffffffffffffff168152602001908152602001600020819080600181540180825580915050600190039060005260206000200160009091909190916101000a81548173ffffffffffffffffffffffffffffffffffffffff021916908373ffffffffffffffffffffffffffffffffffffffff1602179055506001339080600181540180825580915050600190039060005260206000200160009091909190916101000a81548173ffffffffffffffffffffffffffffffffffffffff021916908373ffffffffffffffffffffffffffffffffffffffff16021790555060016002600082825461044a91906108ed565b925050819055507fa01c8e2b0a81830c2e4e199b4cb98ece9d41443b7f9ef51cbb778f0fa13b019d3360016000803373ffffffffffffffffffffffffffffffffffffffff1673ffffffffffffffffffffffffffffffffffffffff168152602001908152602001600020805490506104c19190610921565b836040516104d193929190610955565b60405180910390a18091505092915050565b60008060008473ffffffffffffffffffffffffffffffffffffffff1673ffffffffffffffffffffffffffffffffffffffff16815260200190815260200160002082815481106105355761053461081e565b5b9060005260206000200160009054906101000a900473ffffffffffffffffffffffffffffffffffffffff16905092915050565b611cdd8061098d83390190565b600080fd5b600073ffffffffffffffffffffffffffffffffffffffff82169050919050565b60006105a58261057a565b9050919050565b6105b58161059a565b81146105c057600080fd5b50565b6000813590506105d2816105ac565b92915050565b6000602082840312156105ee576105ed610575565b5b60006105fc848285016105c3565b91505092915050565b600081519050919050565b600082825260208201905092915050565b6000819050602082019050919050565b61063a8161059a565b82525050565b600061064c8383610631565b60208301905092915050565b6000602082019050919050565b600061067082610605565b61067a8185610610565b935061068583610621565b8060005b838110156106b657815161069d8882610640565b97506106a883610658565b925050600181019050610689565b5085935050505092915050565b600060208201905081810360008301526106dd8184610665565b905092915050565b6000819050919050565b6106f8816106e5565b82525050565b600060208201905061071360008301846106ef565b92915050565b610722816106e5565b811461072d57600080fd5b50565b60008135905061073f81610719565b92915050565b6000806040838503121561075c5761075b610575565b5b600061076a85828601610730565b925050602061077b85828601610730565b9150509250929050565b61078e8161059a565b82525050565b60006020820190506107a96000830184610785565b92915050565b600080604083850312156107c6576107c5610575565b5b60006107d4858286016105c3565b92505060206107e585828601610730565b9150509250929050565b7f4e487b7100000000000000000000000000000000000000000000000000000000600052604160045260246000fd5b7f4e487b7100000000000000000000000000000000000000000000000000000000600052603260045260246000fd5b7f4e487b7100000000000000000000000000000000000000000000000000000000600052601160045260246000fd5b6000610887826106e5565b91507fffffffffffffffffffffffffffffffffffffffffffffffffffffffffffffffff82036108b9576108b861084d565b5b600182019050919050565b60006040820190506108d960008301856106ef565b6108e660208301846106ef565b9392505050565b60006108f8826106e5565b9150610903836106e5565b925082820190508082111561091b5761091a61084d565b5b92915050565b600061092c826106e5565b9150610937836106e5565b925082820390508181111561094f5761094e61084d565b5b92915050565b600060608201905061096a6000830186610785565b61097760208301856106ef565b6109846040830184610785565b94935050505056fe60c06040523480156200001157600080fd5b5060405162001cdd38038062001cdd8339818101604052810190620000379190620000d0565b81608081815250508060a0818152505033600260006101000a81548173ffffffffffffffffffffffffffffffffffffffff021916908373ffffffffffffffffffffffffffffffffffffffff160217905550505062000117565b600080fd5b6000819050919050565b620000aa8162000095565b8114620000b657600080fd5b50565b600081519050620000ca816200009f565b92915050565b60008060408385031215620000ea57620000e962000090565b5b6000620000fa85828601620000b9565b92505060206200010d85828601620000b9565b9150509250929050565b60805160a051611b996200014460003960008181610109015261074201526000610bd60152611b996000f3fe6080604052600436106101025760003560e01c80638863dd1a11610095578063ba56585911610064578063ba565859146104a7578063c7abca47146104d0578063d8a4676f1461050d578063e4d89cf61461054a578063fd6bc8b81461058757610275565b80638863dd1a146103eb5780639fd813e314610414578063af157c191461043f578063b93863df1461046a57610275565b80632e1a7d4d116100d15780632e1a7d4d1461033e5780634b73212b1461035a5780637018a7af1461039757806372b47b84146103c057610275565b806309d387da1461027a5780630b816045146102a55780630c4f65bd146102e85780631972f7fa1461031357610275565b36610275577f000000000000000000000000000000000000000000000000000000000000000034101561016a576040517f08c379a000000000000000000000000000000000000000000000000000000000815260040161016190611532565b60405180910390fd5b7f4a0f31347e3bcd7ca4807151e54057b91971fdf592fcd3056a22fa1236dea3a2333460405161019b9291906115ac565b60405180910390a1346000803373ffffffffffffffffffffffffffffffffffffffff1673ffffffffffffffffffffffffffffffffffffffff16815260200190815260200160002060008282546101f19190611604565b92505081905550346001600082825461020a9190611604565b925050819055506004339080600181540180825580915050600190039060005260206000200160009091909190916101000a81548173ffffffffffffffffffffffffffffffffffffffff021916908373ffffffffffffffffffffffffffffffffffffffff1602179055005b600080fd5b34801561028657600080fd5b5061028f6105b2565b60405161029c9190611638565b60405180910390f35b3480156102b157600080fd5b506102cc60048036038101906102c79190611684565b6105ba565b6040516102df97969594939291906116eb565b60405180910390f35b3480156102f457600080fd5b506102fd610714565b60405161030a919061175a565b60405180910390f35b34801561031f57600080fd5b5061032861073e565b6040516103359190611638565b60405180910390f35b61035860048036038101906103539190611684565b610766565b005b34801561036657600080fd5b50610381600480360381019061037c91906117a1565b610ad4565b60405161038e9190611638565b60405180910390f35b3480156103a357600080fd5b506103be60048036038101906103b99190611684565b610b1c565b005b3480156103cc57600080fd5b506103d5610bd2565b6040516103e29190611638565b60405180910390f35b3480156103f757600080fd5b50610412600480360381019061040d91906117a1565b610bfa565b005b34801561042057600080fd5b50610429610d2d565b6040516104369190611638565b60405180910390f35b34801561044b57600080fd5b50610454610d37565b604051610461919061188c565b60405180910390f35b34801561047657600080fd5b50610491600480360381019061048c91906118ae565b610dc5565b60405161049e9190611638565b60405180910390f35b3480156104b357600080fd5b506104ce60048036038101906104c99190611913565b610fc0565b005b3480156104dc57600080fd5b506104f760048036038101906104f291906117a1565b611043565b6040516105049190611638565b60405180910390f35b34801561051957600080fd5b50610534600480360381019061052f9190611684565b61105b565b6040516105419190611953565b60405180910390f35b34801561055657600080fd5b50610571600480360381019061056c91906117a1565b6110a9565b60405161057e9190611638565b60405180910390f35b34801561059357600080fd5b5061059c6110f1565b6040516105a99190611638565b60405180910390f35b600047905090565b6000806000806000806000600388815481106105d9576105d861196e565b5b906000526020600020906008020160020154600389815481106105ff576105fe61196e565b5b90600052602060002090600802016003015460038a815481106106255761062461196e565b5b90600052602060002090600802016001015460038b8154811061064b5761064a61196e565b5b906000526020600020906008020160070160009054906101000a900460ff16600281111561067c5761067b61199d565b5b60038c815481106106905761068f61196e565b5b90600052602060002090600802016005015460038d815481106106b6576106b561196e565b5b90600052602060002090600802016006015460038e815481106106dc576106db61196e565b5b906000526020600020906008020160070160019054906101000a900460ff169650965096509650965096509650919395979092949650565b6000600260009054906101000a900473ffffffffffffffffffffffffffffffffffffffff16905090565b60007f0000000000000000000000000000000000000000000000000000000000000000905090565b600260009054906101000a900473ffffffffffffffffffffffffffffffffffffffff1673ffffffffffffffffffffffffffffffffffffffff163373ffffffffffffffffffffffffffffffffffffffff161461081c5733600260009054906101000a900473ffffffffffffffffffffffffffffffffffffffff166040517fffa2d83c0000000000000000000000000000000000000000000000000000000081526004016108139291906119cc565b60405180910390fd5b8061082681610b1c565b6000600281111561083a5761083961199d565b5b610864600383815481106108515761085061196e565b5b90600052602060002090600802016110fe565b60028111156108765761087561199d565b5b036108ad576040517fbae63cc200000000000000000000000000000000000000000000000000000000815260040160405180910390fd5b6002808111156108c0576108bf61199d565b5b6108ea600383815481106108d7576108d661196e565b5b90600052602060002090600802016110fe565b60028111156108fc576108fb61199d565b5b03610933576040517f3db289e300000000000000000000000000000000000000000000000000000000815260040160405180910390fd5b600061095f6003848154811061094c5761094b61196e565b5b9060005260206000209060080201611119565b9050804710156109a85780476040517fae7a822f00000000000000000000000000000000000000000000000000000000815260040161099f9291906119f5565b60405180910390fd5b6000600260009054906101000a900473ffffffffffffffffffffffffffffffffffffffff1673ffffffffffffffffffffffffffffffffffffffff16826040516109f090611a4f565b60006040518083038185875af1925050503d8060008114610a2d576040519150601f19603f3d011682016040523d82523d6000602084013e610a32565b606091505b5050905080610a6d576040517f4c3ac88a00000000000000000000000000000000000000000000000000000000815260040160405180910390fd5b610a9760038581548110610a8457610a8361196e565b5b9060005260206000209060080201611127565b7f78607c3338a50a97f0960b9ebb80a74d63115b7f462a4ea45c55abb0e5a3656382604051610ac69190611638565b60405180910390a150505050565b60008060008373ffffffffffffffffffffffffffffffffffffffff1673ffffffffffffffffffffffffffffffffffffffff168152602001908152602001600020549050919050565b610b4660038281548110610b3357610b3261196e565b5b9060005260206000209060080201611147565b7f53d354f890b3877b85a588db153bbbce1a4b7c3fd4008a48294f78f13a13524a8160016002811115610b7c57610b7b61199d565b5b610ba660038581548110610b9357610b9261196e565b5b90600052602060002090600802016110fe565b6002811115610bb857610bb761199d565b5b14604051610bc7929190611a64565b60405180910390a150565b60007f0000000000000000000000000000000000000000000000000000000000000000905090565b600260009054906101000a900473ffffffffffffffffffffffffffffffffffffffff1673ffffffffffffffffffffffffffffffffffffffff163373ffffffffffffffffffffffffffffffffffffffff1614610cb05733600260009054906101000a900473ffffffffffffffffffffffffffffffffffffffff166040517fffa2d83c000000000000000000000000000000000000000000000000000000008152600401610ca79291906119cc565b60405180910390fd5b80600260006101000a81548173ffffffffffffffffffffffffffffffffffffffff021916908373ffffffffffffffffffffffffffffffffffffffff1602179055507f0d18b5fd22306e373229b9439188228edca81207d1667f604daf6cef8aa3ee673382604051610d229291906119cc565b60405180910390a150565b6000600154905090565b60606004805480602002602001604051908101604052809291908181526020018280548015610dbb57602002820191906000526020600020905b8160009054906101000a900473ffffffffffffffffffffffffffffffffffffffff1673ffffffffffffffffffffffffffffffffffffffff1681526020019060010190808311610d71575b5050505050905090565b6000600260009054906101000a900473ffffffffffffffffffffffffffffffffffffffff1673ffffffffffffffffffffffffffffffffffffffff163373ffffffffffffffffffffffffffffffffffffffff1614610e7d5733600260009054906101000a900473ffffffffffffffffffffffffffffffffffffffff166040517fffa2d83c000000000000000000000000000000000000000000000000000000008152600401610e749291906119cc565b60405180910390fd5b600060036001816001815401808255809150500390600052602060002090600802019050838160010181905550828160020181905550428160030181905550600081600501819055506000816006018190555060008160070160016101000a81548160ff021916908315150217905550308160040160006101000a81548173ffffffffffffffffffffffffffffffffffffffff021916908373ffffffffffffffffffffffffffffffffffffffff16021790555060008160070160006101000a81548160ff02191690836002811115610f5857610f5761199d565b5b02179055507fa5f7f4c8f7ba98ee825a5d8b155830a9dd4e7d29fcc431c6c3bcce27776c27846001600380549050610f909190611a8d565b604051610f9d9190611638565b60405180910390a16001600380549050610fb79190611a8d565b91505092915050565b600061100f6000803373ffffffffffffffffffffffffffffffffffffffff1673ffffffffffffffffffffffffffffffffffffffff1681526020019081526020016000205461271060015461124e565b905061103e600384815481106110285761102761196e565b5b90600052602060002090600802018333846112b5565b505050565b60006020528060005260406000206000915090505481565b6000600382815481106110715761107061196e565b5b906000526020600020906008020160070160009054906101000a900460ff1660028111156110a2576110a161199d565b5b9050919050565b60008060008373ffffffffffffffffffffffffffffffffffffffff1673ffffffffffffffffffffffffffffffffffffffff168152602001908152602001600020549050919050565b6000600480549050905090565b60008160070160009054906101000a900460ff169050919050565b600081600201549050919050565b60018160070160016101000a81548160ff02191690831515021790555050565b806001600061115583611496565b9050811561119d576000811115611198576040517f1638298000000000000000000000000000000000000000000000000000000000815260040160405180910390fd5b6111d8565b600081036111d7576040517fc1ae823a00000000000000000000000000000000000000000000000000000000815260040160405180910390fd5b5b83600601548460050154111561121a5760018460070160006101000a81548160ff021916908360028111156112105761120f61199d565b5b0217905550611248565b60028460070160006101000a81548160ff021916908360028111156112425761124161199d565b5b02179055505b50505050565b600081838561125d9190611ac1565b1015611295576040517f31869caf00000000000000000000000000000000000000000000000000000000815260040160405180910390fd5b8183856112a29190611ac1565b6112ac9190611b32565b90509392505050565b836000806112c283611496565b9050811561130a576000811115611305576040517f1638298000000000000000000000000000000000000000000000000000000000815260040160405180910390fd5b611345565b60008103611344576040517fc1ae823a00000000000000000000000000000000000000000000000000000000815260040160405180910390fd5b5b8660000160008673ffffffffffffffffffffffffffffffffffffffff1673ffffffffffffffffffffffffffffffffffffffff16815260200190815260200160002060009054906101000a900460ff16156113cb576040517fd2383bdc00000000000000000000000000000000000000000000000000000000815260040160405180910390fd5b60018760000160008773ffffffffffffffffffffffffffffffffffffffff1673ffffffffffffffffffffffffffffffffffffffff16815260200190815260200160002060006101000a81548160ff021916908315150217905550600060018111156114395761143861199d565b5b86600181111561144c5761144b61199d565b5b0361147157838760050160008282546114659190611604565b9250508190555061148d565b838760060160008282546114859190611604565b925050819055505b50505050505050565b600080826001015483600301546114ad9190611604565b90508042106114c05760009150506114d0565b42816114cc9190611a8d565b9150505b919050565b600082825260208201905092915050565b7f496e6372656173652074686520636f6e747269627574696f6e20616d6f756e74600082015250565b600061151c6020836114d5565b9150611527826114e6565b602082019050919050565b6000602082019050818103600083015261154b8161150f565b9050919050565b600073ffffffffffffffffffffffffffffffffffffffff82169050919050565b600061157d82611552565b9050919050565b61158d81611572565b82525050565b6000819050919050565b6115a681611593565b82525050565b60006040820190506115c16000830185611584565b6115ce602083018461159d565b9392505050565b7f4e487b7100000000000000000000000000000000000000000000000000000000600052601160045260246000fd5b600061160f82611593565b915061161a83611593565b9250828201905080821115611632576116316115d5565b5b92915050565b600060208201905061164d600083018461159d565b92915050565b600080fd5b61166181611593565b811461166c57600080fd5b50565b60008135905061167e81611658565b92915050565b60006020828403121561169a57611699611653565b5b60006116a88482850161166f565b91505092915050565b600063ffffffff82169050919050565b6116ca816116b1565b82525050565b60008115159050919050565b6116e5816116d0565b82525050565b600060e082019050611700600083018a61159d565b61170d602083018961159d565b61171a604083018861159d565b61172760608301876116c1565b611734608083018661159d565b61174160a083018561159d565b61174e60c08301846116dc565b98975050505050505050565b600060208201905061176f6000830184611584565b92915050565b61177e81611572565b811461178957600080fd5b50565b60008135905061179b81611775565b92915050565b6000602082840312156117b7576117b6611653565b5b60006117c58482850161178c565b91505092915050565b600081519050919050565b600082825260208201905092915050565b6000819050602082019050919050565b61180381611572565b82525050565b600061181583836117fa565b60208301905092915050565b6000602082019050919050565b6000611839826117ce565b61184381856117d9565b935061184e836117ea565b8060005b8381101561187f5781516118668882611809565b975061187183611821565b925050600181019050611852565b5085935050505092915050565b600060208201905081810360008301526118a6818461182e565b905092915050565b600080604083850312156118c5576118c4611653565b5b60006118d38582860161166f565b92505060206118e48582860161166f565b9150509250929050565b600281106118fb57600080fd5b50565b60008135905061190d816118ee565b92915050565b6000806040838503121561192a57611929611653565b5b60006119388582860161166f565b9250506020611949858286016118fe565b9150509250929050565b600060208201905061196860008301846116c1565b92915050565b7f4e487b7100000000000000000000000000000000000000000000000000000000600052603260045260246000fd5b7f4e487b7100000000000000000000000000000000000000000000000000000000600052602160045260246000fd5b60006040820190506119e16000830185611584565b6119ee6020830184611584565b9392505050565b6000604082019050611a0a600083018561159d565b611a17602083018461159d565b9392505050565b600081905092915050565b50565b6000611a39600083611a1e565b9150611a4482611a29565b600082019050919050565b6000611a5a82611a2c565b9150819050919050565b6000604082019050611a79600083018561159d565b611a8660208301846116dc565b9392505050565b6000611a9882611593565b9150611aa383611593565b9250828203905081811115611abb57611aba6115d5565b5b92915050565b6000611acc82611593565b9150611ad783611593565b9250828202611ae581611593565b91508282048414831517611afc57611afb6115d5565b5b5092915050565b7f4e487b7100000000000000000000000000000000000000000000000000000000600052601260045260246000fd5b6000611b3d82611593565b9150611b4883611593565b925082611b5857611b57611b03565b5b82820490509291505056fea26469706673582212202b84a784481ed573977677aa1a67b1c4de3844c028950650c3e9e55ee021af5764736f6c63430008110033a2646970667358221220063257717cdc63ea1f2ac3cecf98e716e771bb8635a26c299506216dd65dfa7664736f6c63430008110033",
  "devdoc": {
    "kind": "dev",
    "methods": {},
    "version": 1
  },
  "userdoc": {
    "kind": "user",
    "methods": {},
    "version": 1
  },
  "storageLayout": {
    "storage": [
      {
        "astId": 642,
        "contract": "contracts/CrowdFunding.sol:CrowdFunding",
        "label": "s_campaigns",
        "offset": 0,
        "slot": "0",
        "type": "t_mapping(t_address,t_array(t_contract(Campaign)623)dyn_storage)"
      },
      {
        "astId": 645,
        "contract": "contracts/CrowdFunding.sol:CrowdFunding",
        "label": "s_campaignCreaters",
        "offset": 0,
        "slot": "1",
        "type": "t_array(t_address)dyn_storage"
      },
      {
        "astId": 647,
        "contract": "contracts/CrowdFunding.sol:CrowdFunding",
        "label": "s_totalCampaign",
        "offset": 0,
        "slot": "2",
        "type": "t_uint256"
      }
    ],
    "types": {
      "t_address": {
        "encoding": "inplace",
        "label": "address",
        "numberOfBytes": "20"
      },
      "t_array(t_address)dyn_storage": {
        "base": "t_address",
        "encoding": "dynamic_array",
        "label": "address[]",
        "numberOfBytes": "32"
      },
      "t_array(t_contract(Campaign)623)dyn_storage": {
        "base": "t_contract(Campaign)623",
        "encoding": "dynamic_array",
        "label": "contract Campaign[]",
        "numberOfBytes": "32"
      },
      "t_contract(Campaign)623": {
        "encoding": "inplace",
        "label": "contract Campaign",
        "numberOfBytes": "20"
      },
      "t_mapping(t_address,t_array(t_contract(Campaign)623)dyn_storage)": {
        "encoding": "mapping",
        "key": "t_address",
        "label": "mapping(address => contract Campaign[])",
        "numberOfBytes": "32",
        "value": "t_array(t_contract(Campaign)623)dyn_storage"
      },
      "t_uint256": {
        "encoding": "inplace",
        "label": "uint256",
        "numberOfBytes": "32"
      }
    }
  }
}